{
  "contractName": "AuthereumProxyFactory",
  "abi": [
    {
      "inputs": [
        {
          "internalType": "address",
          "name": "_implementation",
          "type": "address"
        },
        {
          "internalType": "address",
          "name": "_authereumEnsManagerAddress",
          "type": "address"
        }
      ],
      "payable": false,
      "stateMutability": "nonpayable",
      "type": "constructor"
    },
    {
      "anonymous": false,
      "inputs": [
        {
          "indexed": true,
          "internalType": "address",
          "name": "authereumEnsManager",
          "type": "address"
        }
      ],
      "name": "AuthereumEnsManagerChanged",
      "type": "event"
    },
    {
      "anonymous": false,
      "inputs": [
        {
          "indexed": false,
          "internalType": "bytes",
          "name": "initCode",
          "type": "bytes"
        }
      ],
      "name": "InitCodeChanged",
      "type": "event"
    },
    {
      "anonymous": false,
      "inputs": [
        {
          "indexed": true,
          "internalType": "address",
          "name": "_newOwner",
          "type": "address"
        }
      ],
      "name": "OwnerChanged",
      "type": "event"
    },
    {
      "constant": true,
      "inputs": [],
      "name": "authereumProxyFactoryVersion",
      "outputs": [
        {
          "internalType": "string",
          "name": "",
          "type": "string"
        }
      ],
      "payable": false,
      "stateMutability": "view",
      "type": "function"
    },
    {
      "constant": false,
      "inputs": [
        {
          "internalType": "address",
          "name": "_newOwner",
          "type": "address"
        }
      ],
      "name": "changeOwner",
      "outputs": [],
      "payable": false,
      "stateMutability": "nonpayable",
      "type": "function"
    },
    {
      "constant": true,
      "inputs": [
        {
          "internalType": "address",
          "name": "_potentialOwner",
          "type": "address"
        }
      ],
      "name": "isOwner",
      "outputs": [
        {
          "internalType": "bool",
          "name": "",
          "type": "bool"
        }
      ],
      "payable": false,
      "stateMutability": "view",
      "type": "function"
    },
    {
      "constant": true,
      "inputs": [],
      "name": "owner",
      "outputs": [
        {
          "internalType": "address",
          "name": "",
          "type": "address"
        }
      ],
      "payable": false,
      "stateMutability": "view",
      "type": "function"
    },
    {
      "constant": false,
      "inputs": [
        {
          "internalType": "bytes",
          "name": "_initCode",
          "type": "bytes"
        }
      ],
      "name": "setInitCode",
      "outputs": [],
      "payable": false,
      "stateMutability": "nonpayable",
      "type": "function"
    },
    {
      "constant": false,
      "inputs": [
        {
          "internalType": "address",
          "name": "_authereumEnsManagerAddress",
          "type": "address"
        }
      ],
      "name": "setAuthereumEnsManager",
      "outputs": [],
      "payable": false,
      "stateMutability": "nonpayable",
      "type": "function"
    },
    {
      "constant": true,
      "inputs": [],
      "name": "getInitCode",
      "outputs": [
        {
          "internalType": "bytes",
          "name": "",
          "type": "bytes"
        }
      ],
      "payable": false,
      "stateMutability": "view",
      "type": "function"
    },
    {
      "constant": true,
      "inputs": [],
      "name": "getAuthereumEnsManager",
      "outputs": [
        {
          "internalType": "address",
          "name": "",
          "type": "address"
        }
      ],
      "payable": false,
      "stateMutability": "view",
      "type": "function"
    },
    {
      "constant": false,
      "inputs": [
        {
          "internalType": "uint256",
          "name": "_salt",
          "type": "uint256"
        },
        {
          "internalType": "string",
          "name": "_label",
          "type": "string"
        },
        {
          "internalType": "bytes[]",
          "name": "_initData",
          "type": "bytes[]"
        }
      ],
      "name": "createProxy",
      "outputs": [
        {
          "internalType": "contract AuthereumProxy",
          "name": "",
          "type": "address"
        }
      ],
      "payable": false,
      "stateMutability": "nonpayable",
      "type": "function"
    }
  ],
  "bytecode": "0x60806040523480156200001157600080fd5b5060405162001e3f38038062001e3f83398181016040526200003791908101906200030d565b336000806101000a81548173ffffffffffffffffffffffffffffffffffffffff021916908373ffffffffffffffffffffffffffffffffffffffff16021790555060405180602001620000899062000239565b6020820181038252601f19601f820116604052508273ffffffffffffffffffffffffffffffffffffffff16604051602001620000c79291906200043b565b60405160208183030381529060405260019080519060200190620000ed92919062000247565b5080600260006101000a81548173ffffffffffffffffffffffffffffffffffffffff021916908373ffffffffffffffffffffffffffffffffffffffff160217905550600260009054906101000a900473ffffffffffffffffffffffffffffffffffffffff16600360006101000a81548173ffffffffffffffffffffffffffffffffffffffff021916908373ffffffffffffffffffffffffffffffffffffffff1602179055507fa168b0c0111cc5ed1953d0eddb6b89bdc30fbce72df425a073415ab6e7fe5b836001604051620001c4919062000467565b60405180910390a1600260009054906101000a900473ffffffffffffffffffffffffffffffffffffffff1673ffffffffffffffffffffffffffffffffffffffff167f611e13e30abde20efe0428857979fdaad463cbdd09132197b313f51e2bd175cf60405160405180910390a250506200055f565b6103758062001aca83390190565b828054600181600116156101000203166002900490600052602060002090601f016020900481019282601f106200028a57805160ff1916838001178555620002bb565b82800160010185558215620002bb579182015b82811115620002ba5782518255916020019190600101906200029d565b5b509050620002ca9190620002ce565b5090565b620002f391905b80821115620002ef576000816000905550600101620002d5565b5090565b90565b600081519050620003078162000545565b92915050565b600080604083850312156200032157600080fd5b60006200033185828601620002f6565b92505060206200034485828601620002f6565b9150509250929050565b60006200035b82620004a0565b620003678185620004bc565b93506200037981856020860162000505565b80840191505092915050565b600081546001811660008114620003a55760018114620003ce5762000418565b607f6002830416620003b88187620004ab565b955060ff19831686526020860193505062000418565b60028204620003de8187620004ab565b9550620003eb856200048b565b60005b828110156200040f57815481890152600182019150602081019050620003ee565b80880195505050505b505092915050565b620004356200042f82620004fb565b6200053b565b82525050565b60006200044982856200034e565b915062000457828462000420565b6020820191508190509392505050565b6000602082019050818103600083015262000483818462000385565b905092915050565b60008190508160005260206000209050919050565b600081519050919050565b600082825260208201905092915050565b600081905092915050565b6000620004d482620004db565b9050919050565b600073ffffffffffffffffffffffffffffffffffffffff82169050919050565b6000819050919050565b60005b838110156200052557808201518184015260208101905062000508565b8381111562000535576000848401525b50505050565b6000819050919050565b6200055081620004c7565b81146200055c57600080fd5b50565b61155b806200056f6000396000f3fe608060405234801561001057600080fd5b50600436106100935760003560e01c8063568ea09111610066578063568ea0911461012057806364b32c4f146101505780638da5cb5b1461016e578063a35c26881461018c578063a6f9dae1146101a857610093565b80632f54bf6e146100985780632f552b0d146100c857806340b79133146100e6578063540afd7d14610102575b600080fd5b6100b260048036036100ad9190810190610ce5565b6101c4565b6040516100bf9190611127565b60405180910390f35b6100d061021d565b6040516100dd91906111a1565b60405180910390f35b61010060048036036100fb9190810190610ce5565b610256565b005b61010a6103f1565b604051610117919061110c565b60405180910390f35b61013a60048036036101359190810190610d4f565b61041b565b6040516101479190611186565b60405180910390f35b610158610746565b6040516101659190611142565b60405180910390f35b6101766107e8565b604051610183919061110c565b60405180910390f35b6101a660048036036101a19190810190610d0e565b61080d565b005b6101c260048036036101bd9190810190610ce5565b6108ee565b005b60008173ffffffffffffffffffffffffffffffffffffffff166000809054906101000a900473ffffffffffffffffffffffffffffffffffffffff1673ffffffffffffffffffffffffffffffffffffffff16149050919050565b6040518060400160405280600a81526020017f323031393131313530300000000000000000000000000000000000000000000081525081565b6000809054906101000a900473ffffffffffffffffffffffffffffffffffffffff1673ffffffffffffffffffffffffffffffffffffffff163373ffffffffffffffffffffffffffffffffffffffff16146102e5576040517f08c379a00000000000000000000000000000000000000000000000000000000081526004016102dc906111f3565b60405180910390fd5b80600260006101000a81548173ffffffffffffffffffffffffffffffffffffffff021916908373ffffffffffffffffffffffffffffffffffffffff160217905550600260009054906101000a900473ffffffffffffffffffffffffffffffffffffffff16600360006101000a81548173ffffffffffffffffffffffffffffffffffffffff021916908373ffffffffffffffffffffffffffffffffffffffff160217905550600260009054906101000a900473ffffffffffffffffffffffffffffffffffffffff1673ffffffffffffffffffffffffffffffffffffffff167f611e13e30abde20efe0428857979fdaad463cbdd09132197b313f51e2bd175cf60405160405180910390a250565b6000600260009054906101000a900473ffffffffffffffffffffffffffffffffffffffff16905090565b60008060009054906101000a900473ffffffffffffffffffffffffffffffffffffffff1673ffffffffffffffffffffffffffffffffffffffff163373ffffffffffffffffffffffffffffffffffffffff16146104ac576040517f08c379a00000000000000000000000000000000000000000000000000000000081526004016104a3906111f3565b60405180910390fd5b6000606060018054600181600116156101000203166002900480601f0160208091040260200160405190810160405280929190818152602001828054600181600116156101000203166002900480156105465780601f1061051b57610100808354040283529160200191610546565b820191906000526020600020905b81548152906001019060200180831161052957829003601f168201915b5050505050905060006105598733610a73565b9050808251602084016000f59250823b61057257600080fd5b600080600090505b86518110156106a857600087828151811061059157fe5b60200260200101515114156105db576040517f08c379a00000000000000000000000000000000000000000000000000000000081526004016105d290611253565b60405180910390fd5b8473ffffffffffffffffffffffffffffffffffffffff168782815181106105fe57fe5b602002602001015160405161061391906110c9565b6000604051808303816000865af19150503d8060008114610650576040519150601f19603f3d011682016040523d82523d6000602084013e610655565b606091505b5050809250508161069b576040517f08c379a000000000000000000000000000000000000000000000000000000000815260040161069290611213565b60405180910390fd5b808060010191505061057a565b50600360009054906101000a900473ffffffffffffffffffffffffffffffffffffffff1673ffffffffffffffffffffffffffffffffffffffff16631e59c52988866040518363ffffffff1660e01b81526004016107069291906111c3565b600060405180830381600087803b15801561072057600080fd5b505af1158015610734573d6000803e3d6000fd5b50505050839450505050509392505050565b606060018054600181600116156101000203166002900480601f0160208091040260200160405190810160405280929190818152602001828054600181600116156101000203166002900480156107de5780601f106107b3576101008083540402835291602001916107de565b820191906000526020600020905b8154815290600101906020018083116107c157829003601f168201915b5050505050905090565b6000809054906101000a900473ffffffffffffffffffffffffffffffffffffffff1681565b6000809054906101000a900473ffffffffffffffffffffffffffffffffffffffff1673ffffffffffffffffffffffffffffffffffffffff163373ffffffffffffffffffffffffffffffffffffffff161461089c576040517f08c379a0000000000000000000000000000000000000000000000000000000008152600401610893906111f3565b60405180910390fd5b80600190805190602001906108b2929190610aa6565b507fa168b0c0111cc5ed1953d0eddb6b89bdc30fbce72df425a073415ab6e7fe5b8360016040516108e39190611164565b60405180910390a150565b6000809054906101000a900473ffffffffffffffffffffffffffffffffffffffff1673ffffffffffffffffffffffffffffffffffffffff163373ffffffffffffffffffffffffffffffffffffffff161461097d576040517f08c379a0000000000000000000000000000000000000000000000000000000008152600401610974906111f3565b60405180910390fd5b600073ffffffffffffffffffffffffffffffffffffffff168173ffffffffffffffffffffffffffffffffffffffff1614156109ed576040517f08c379a00000000000000000000000000000000000000000000000000000000081526004016109e490611233565b60405180910390fd5b806000806101000a81548173ffffffffffffffffffffffffffffffffffffffff021916908373ffffffffffffffffffffffffffffffffffffffff1602179055508073ffffffffffffffffffffffffffffffffffffffff167fa2ea9883a321a3e97b8266c2b078bfeec6d50c711ed71f874a90d500ae2eaf3660405160405180910390a250565b60008282604051602001610a889291906110e0565b60405160208183030381529060405280519060200120905092915050565b828054600181600116156101000203166002900490600052602060002090601f016020900481019282601f10610ae757805160ff1916838001178555610b15565b82800160010185558215610b15579182015b82811115610b14578251825591602001919060010190610af9565b5b509050610b229190610b26565b5090565b610b4891905b80821115610b44576000816000905550600101610b2c565b5090565b90565b600081359050610b5a816114ea565b92915050565b600082601f830112610b7157600080fd5b8135610b84610b7f826112a0565b611273565b9150818183526020840193506020810190508360005b83811015610bca5781358601610bb08882610bd4565b845260208401935060208301925050600181019050610b9a565b5050505092915050565b600082601f830112610be557600080fd5b8135610bf8610bf3826112c8565b611273565b91508082526020830160208301858383011115610c1457600080fd5b610c1f83828461145c565b50505092915050565b600082601f830112610c3957600080fd5b8135610c4c610c47826112f4565b611273565b91508082526020830160208301858383011115610c6857600080fd5b610c7383828461145c565b50505092915050565b600082601f830112610c8d57600080fd5b8135610ca0610c9b82611320565b611273565b91508082526020830160208301858383011115610cbc57600080fd5b610cc783828461145c565b50505092915050565b600081359050610cdf81611501565b92915050565b600060208284031215610cf757600080fd5b6000610d0584828501610b4b565b91505092915050565b600060208284031215610d2057600080fd5b600082013567ffffffffffffffff811115610d3a57600080fd5b610d4684828501610c28565b91505092915050565b600080600060608486031215610d6457600080fd5b6000610d7286828701610cd0565b935050602084013567ffffffffffffffff811115610d8f57600080fd5b610d9b86828701610c7c565b925050604084013567ffffffffffffffff811115610db857600080fd5b610dc486828701610b60565b9150509250925092565b610dd781611402565b82525050565b610de6816113ba565b82525050565b610dfd610df8826113ba565b61149e565b82525050565b610e0c816113cc565b82525050565b6000610e1d8261136c565b610e27818561138d565b9350610e3781856020860161146b565b610e40816114cc565b840191505092915050565b6000610e5682611361565b610e60818561139e565b9350610e7081856020860161146b565b80840191505092915050565b600081546001811660008114610e995760018114610ebf57610f03565b607f6002830416610eaa818761138d565b955060ff198316865260208601935050610f03565b60028204610ecd818761138d565b9550610ed88561134c565b60005b82811015610efa57815481890152600182019150602081019050610edb565b80880195505050505b505092915050565b610f1481611414565b82525050565b6000610f2582611382565b610f2f81856113a9565b9350610f3f81856020860161146b565b610f48816114cc565b840191505092915050565b6000610f5e82611377565b610f6881856113a9565b9350610f7881856020860161146b565b610f81816114cc565b840191505092915050565b6000610f996010836113a9565b91507f4f3a204d757374206265206f776e6572000000000000000000000000000000006000830152602082019050919050565b6000610fd96028836113a9565b91507f4150463a20556e7375636365737366756c206163636f756e7420696e6974696160008301527f6c697a6174696f6e0000000000000000000000000000000000000000000000006020830152604082019050919050565b600061103f601b836113a9565b91507f4f3a2041646472657373206d757374206e6f74206265206e756c6c00000000006000830152602082019050919050565b600061107f601e836113a9565b91507f4150463a20456d70747920696e697469616c697a6174696f6e206461746100006000830152602082019050919050565b6110c36110be826113f8565b6114c2565b82525050565b60006110d58284610e4b565b915081905092915050565b60006110ec82856110b2565b6020820191506110fc8284610dec565b6014820191508190509392505050565b60006020820190506111216000830184610ddd565b92915050565b600060208201905061113c6000830184610e03565b92915050565b6000602082019050818103600083015261115c8184610e12565b905092915050565b6000602082019050818103600083015261117e8184610e7c565b905092915050565b600060208201905061119b6000830184610f0b565b92915050565b600060208201905081810360008301526111bb8184610f53565b905092915050565b600060408201905081810360008301526111dd8185610f1a565b90506111ec6020830184610dce565b9392505050565b6000602082019050818103600083015261120c81610f8c565b9050919050565b6000602082019050818103600083015261122c81610fcc565b9050919050565b6000602082019050818103600083015261124c81611032565b9050919050565b6000602082019050818103600083015261126c81611072565b9050919050565b6000604051905081810181811067ffffffffffffffff8211171561129657600080fd5b8060405250919050565b600067ffffffffffffffff8211156112b757600080fd5b602082029050602081019050919050565b600067ffffffffffffffff8211156112df57600080fd5b601f19601f8301169050602081019050919050565b600067ffffffffffffffff82111561130b57600080fd5b601f19601f8301169050602081019050919050565b600067ffffffffffffffff82111561133757600080fd5b601f19601f8301169050602081019050919050565b60008190508160005260206000209050919050565b600081519050919050565b600081519050919050565b600081519050919050565b600081519050919050565b600082825260208201905092915050565b600081905092915050565b600082825260208201905092915050565b60006113c5826113d8565b9050919050565b60008115159050919050565b600073ffffffffffffffffffffffffffffffffffffffff82169050919050565b6000819050919050565b600061140d82611438565b9050919050565b600061141f82611426565b9050919050565b6000611431826113d8565b9050919050565b60006114438261144a565b9050919050565b6000611455826113d8565b9050919050565b82818337600083830152505050565b60005b8381101561148957808201518184015260208101905061146e565b83811115611498576000848401525b50505050565b60006114a9826114b0565b9050919050565b60006114bb826114dd565b9050919050565b6000819050919050565b6000601f19601f8301169050919050565b60008160601b9050919050565b6114f3816113ba565b81146114fe57600080fd5b50565b61150a816113f8565b811461151557600080fd5b5056fea365627a7a723158203a2ca00d4703cb2dccf561975a72e9be94c900544f626b7521b39aca81b09cb46c6578706572696d656e74616cf564736f6c6343000510004060806040526040516103753803806103758339818101604052610025919081019061006c565b60007f360894a13ba1a3210667c828492db98dca3e2076cc3735a920a3ca505d382bbc60001b905081815550506100de565b600081519050610066816100c7565b92915050565b60006020828403121561007e57600080fd5b600061008c84828501610057565b91505092915050565b60006100a0826100a7565b9050919050565b600073ffffffffffffffffffffffffffffffffffffffff82169050919050565b6100d081610095565b81146100db57600080fd5b50565b610288806100ed6000396000f3fe6080604052600436106100295760003560e01c80635bea7d5d1461006e5780635c60da1b14610099575b600080369050141561003a5761006c565b60006100446100c4565b90503660008037600080366000845af43d6000803e8060008114610067573d6000f35b3d6000fd5b005b34801561007a57600080fd5b506100836100f5565b6040516100909190610191565b60405180910390f35b3480156100a557600080fd5b506100ae6100c4565b6040516100bb9190610176565b60405180910390f35b6000807f360894a13ba1a3210667c828492db98dca3e2076cc3735a920a3ca505d382bbc60001b9050805491505090565b6040518060400160405280600a81526020017f323031393130323530300000000000000000000000000000000000000000000081525081565b610137816101cf565b82525050565b6000610148826101b3565b61015281856101be565b9350610162818560208601610201565b61016b81610234565b840191505092915050565b600060208201905061018b600083018461012e565b92915050565b600060208201905081810360008301526101ab818461013d565b905092915050565b600081519050919050565b600082825260208201905092915050565b60006101da826101e1565b9050919050565b600073ffffffffffffffffffffffffffffffffffffffff82169050919050565b60005b8381101561021f578082015181840152602081019050610204565b8381111561022e576000848401525b50505050565b6000601f19601f830116905091905056fea365627a7a72315820b84d0711f95919559860fc2db06f2f25f8a3ff4ee3c489e32d5d5651433f30026c6578706572696d656e74616cf564736f6c63430005100040",
  "source": "pragma solidity 0.5.16;\npragma experimental ABIEncoderV2;\n\nimport \"../base/Owned.sol\";\nimport \"./AuthereumProxy.sol\";\n\ncontract AuthereumEnsManager {\n    function register(string calldata _label, address _owner) external {}\n}\n/**\n * @title AuthereumProxyFactory\n * @author Authereum, Inc.\n * @dev A factory that creates Authereum Proxies.\n */\n\ncontract AuthereumProxyFactory is Owned {\n    string constant public authereumProxyFactoryVersion = \"2019111500\";\n    bytes private initCode;\n    address private authereumEnsManagerAddress;\n    \n    AuthereumEnsManager authereumEnsManager;\n\n    event InitCodeChanged(bytes initCode);\n    event AuthereumEnsManagerChanged(address indexed authereumEnsManager);\n\n    /// @dev Constructor\n    /// @param _implementation Address of the Authereum implementation\n    /// @param _authereumEnsManagerAddress Address for the Authereum ENS Manager contract\n    constructor(address _implementation, address _authereumEnsManagerAddress) public {\n        initCode = abi.encodePacked(type(AuthereumProxy).creationCode, uint256(_implementation));\n        authereumEnsManagerAddress =  _authereumEnsManagerAddress;\n        authereumEnsManager = AuthereumEnsManager(authereumEnsManagerAddress);\n        emit InitCodeChanged(initCode);\n        emit AuthereumEnsManagerChanged(authereumEnsManagerAddress);\n    }\n\n    /**\n     * Setters\n     */\n\n    /// @dev Setter for the proxy initCode\n    /// @param _initCode Init code off the AuthereumProxy and constructor\n    function setInitCode(bytes memory _initCode) public onlyOwner {\n        initCode = _initCode;\n        emit InitCodeChanged(initCode);\n    }\n\n    /// @dev Setter for the Authereum ENS Manager address\n    /// @param _authereumEnsManagerAddress Address of the new Authereum ENS Manager\n    function setAuthereumEnsManager(address _authereumEnsManagerAddress) public onlyOwner {\n        authereumEnsManagerAddress = _authereumEnsManagerAddress;\n        authereumEnsManager = AuthereumEnsManager(authereumEnsManagerAddress);\n        emit AuthereumEnsManagerChanged(authereumEnsManagerAddress);\n    }\n\n    /**\n     *  Getters\n     */\n\n    /// @dev Getter for the proxy initCode\n    /// @return Init code\n    function getInitCode() public view returns (bytes memory) {\n        return initCode;\n    }\n\n    /// @dev Getter for the private authereumEnsManager variable\n    /// @return Authereum Ens Manager\n    function getAuthereumEnsManager() public view returns (address) {\n        return authereumEnsManagerAddress;\n    }\n\n    /// @dev Create an Authereum Proxy and iterate through initialize data\n    /// @notice The bytes[] _initData is an array of initialize functions. \n    /// @notice This is used when a user creates an account e.g. on V5, but V1,2,3, \n    /// @notice etc. have state vars that need to be included.\n    /// @param _salt A uint256 value to add randomness to the account creation\n    /// @param _label Label for the user's Authereum ENS subdomain\n    /// @param _initData Array of initialize data\n    function createProxy(\n        uint256 _salt, \n        string memory _label,\n        bytes[] memory _initData\n    ) \n        public \n        onlyOwner\n        returns (AuthereumProxy)\n    {\n        address payable addr;\n        bytes memory _initCode = initCode;\n        bytes32 salt = _getSalt(_salt, msg.sender);\n\n        // Create proxy\n        assembly {\n            addr := create2(0, add(_initCode, 0x20), mload(_initCode), salt)\n            if iszero(extcodesize(addr)) {\n                revert(0, 0)\n            }\n        }\n\n        // Loop through initializations of each version of the logic contract\n        bool success;\n        for (uint256 i = 0; i < _initData.length; i++) {\n            require(_initData[i].length != 0, \"APF: Empty initialization data\");\n            (success,) = addr.call(_initData[i]);\n            require(success, \"APF: Unsuccessful account initialization\");\n        }\n\n        // Set ENS name\n        authereumEnsManager.register(_label, addr);\n\n        return AuthereumProxy(addr);\n    }\n\n    /// @dev Generate a salt out of a uint256 value and the sender\n    /// @param _salt A uint256 value to add randomness to the account creation\n    /// @param _sender Sender of the transaction\n    function _getSalt(uint256 _salt, address _sender) internal pure returns (bytes32) {\n        return keccak256(abi.encodePacked(_salt, _sender)); \n    }\n}",
  "sourcePath": "/Users/james/Documents/eth_dev/staked/contracts/contracts/upgradeability/AuthereumProxyFactory.sol",
  "compiler": {
    "name": "solc",
    "version": "0.5.16+commit.9c3226ce.Emscripten.clang"
  },
  "schemaVersion": "3.0.23",
  "updatedAt": "2020-02-16T03:07:49.807Z",
  "devdoc": {
    "author": "Authereum, Inc.",
    "details": "A factory that creates Authereum Proxies.",
    "methods": {
      "changeOwner(address)": {
        "details": "Lets the owner transfer ownership of the contract to a new owner",
        "params": {
          "_newOwner": "The new owner"
        }
      },
      "constructor": {
        "details": "Constructor",
        "params": {
          "_authereumEnsManagerAddress": "Address for the Authereum ENS Manager contract",
          "_implementation": "Address of the Authereum implementation"
        }
      },
      "createProxy(uint256,string,bytes[])": {
        "details": "Create an Authereum Proxy and iterate through initialize data",
        "params": {
          "_initData": "Array of initialize data",
          "_label": "Label for the user's Authereum ENS subdomain",
          "_salt": "A uint256 value to add randomness to the account creation"
        }
      },
      "getAuthereumEnsManager()": {
        "details": "Getter for the private authereumEnsManager variable",
        "return": "Authereum Ens Manager"
      },
      "getInitCode()": {
        "details": "Getter for the proxy initCode",
        "return": "Init code"
      },
      "isOwner(address)": {
        "details": "Return the ownership status of an address",
        "params": {
          "_potentialOwner": "Address being checked"
        },
        "return": "True if the _potentialOwner is the owner"
      },
      "setAuthereumEnsManager(address)": {
        "details": "Setter for the Authereum ENS Manager address",
        "params": {
          "_authereumEnsManagerAddress": "Address of the new Authereum ENS Manager"
        }
      },
      "setInitCode(bytes)": {
        "details": "Setter for the proxy initCode",
        "params": {
          "_initCode": "Init code off the AuthereumProxy and constructor"
        }
      }
    },
    "title": "AuthereumProxyFactory"
  },
  "userdoc": {
    "methods": {
      "createProxy(uint256,string,bytes[])": {
        "notice": "The bytes[] _initData is an array of initialize functions. This is used when a user creates an account e.g. on V5, but V1,2,3, etc. have state vars that need to be included."
      }
    }
  }
}