{
  "contractName": "AuthereumEnsManager",
  "abi": [
    {
      "constant": false,
      "inputs": [
        {
          "internalType": "string",
          "name": "_label",
          "type": "string"
        },
        {
          "internalType": "address",
          "name": "_owner",
          "type": "address"
        }
      ],
      "name": "register",
      "outputs": [],
      "payable": false,
      "stateMutability": "nonpayable",
      "type": "function"
    }
  ],
  "bytecode": "0x608060405234801561001057600080fd5b50610194806100206000396000f3fe608060405234801561001057600080fd5b506004361061002b5760003560e01c80631e59c52914610030575b600080fd5b61004a600480360361004591908101906100b0565b61004c565b005b505050565b6000813590506100608161013a565b92915050565b60008083601f84011261007857600080fd5b8235905067ffffffffffffffff81111561009157600080fd5b6020830191508360018202830111156100a957600080fd5b9250929050565b6000806000604084860312156100c557600080fd5b600084013567ffffffffffffffff8111156100df57600080fd5b6100eb86828701610066565b935093505060206100fe86828701610051565b9150509250925092565b60006101138261011a565b9050919050565b600073ffffffffffffffffffffffffffffffffffffffff82169050919050565b61014381610108565b811461014e57600080fd5b5056fea365627a7a72315820e4d30e861a66597837d5ee2a720f211fe8fa3abdb91e739627ee882adc343c496c6578706572696d656e74616cf564736f6c63430005100040",
  "source": "pragma solidity 0.5.16;\npragma experimental ABIEncoderV2;\n\nimport \"../base/Owned.sol\";\nimport \"./AuthereumProxy.sol\";\n\ncontract AuthereumEnsManager {\n    function register(string calldata _label, address _owner) external {}\n}\n/**\n * @title AuthereumProxyFactory\n * @author Authereum, Inc.\n * @dev A factory that creates Authereum Proxies.\n */\n\ncontract AuthereumProxyFactory is Owned {\n    string constant public authereumProxyFactoryVersion = \"2019111500\";\n    bytes private initCode;\n    address private authereumEnsManagerAddress;\n    \n    AuthereumEnsManager authereumEnsManager;\n\n    event InitCodeChanged(bytes initCode);\n    event AuthereumEnsManagerChanged(address indexed authereumEnsManager);\n\n    /// @dev Constructor\n    /// @param _implementation Address of the Authereum implementation\n    /// @param _authereumEnsManagerAddress Address for the Authereum ENS Manager contract\n    constructor(address _implementation, address _authereumEnsManagerAddress) public {\n        initCode = abi.encodePacked(type(AuthereumProxy).creationCode, uint256(_implementation));\n        authereumEnsManagerAddress =  _authereumEnsManagerAddress;\n        authereumEnsManager = AuthereumEnsManager(authereumEnsManagerAddress);\n        emit InitCodeChanged(initCode);\n        emit AuthereumEnsManagerChanged(authereumEnsManagerAddress);\n    }\n\n    /**\n     * Setters\n     */\n\n    /// @dev Setter for the proxy initCode\n    /// @param _initCode Init code off the AuthereumProxy and constructor\n    function setInitCode(bytes memory _initCode) public onlyOwner {\n        initCode = _initCode;\n        emit InitCodeChanged(initCode);\n    }\n\n    /// @dev Setter for the Authereum ENS Manager address\n    /// @param _authereumEnsManagerAddress Address of the new Authereum ENS Manager\n    function setAuthereumEnsManager(address _authereumEnsManagerAddress) public onlyOwner {\n        authereumEnsManagerAddress = _authereumEnsManagerAddress;\n        authereumEnsManager = AuthereumEnsManager(authereumEnsManagerAddress);\n        emit AuthereumEnsManagerChanged(authereumEnsManagerAddress);\n    }\n\n    /**\n     *  Getters\n     */\n\n    /// @dev Getter for the proxy initCode\n    /// @return Init code\n    function getInitCode() public view returns (bytes memory) {\n        return initCode;\n    }\n\n    /// @dev Getter for the private authereumEnsManager variable\n    /// @return Authereum Ens Manager\n    function getAuthereumEnsManager() public view returns (address) {\n        return authereumEnsManagerAddress;\n    }\n\n    /// @dev Create an Authereum Proxy and iterate through initialize data\n    /// @notice The bytes[] _initData is an array of initialize functions. \n    /// @notice This is used when a user creates an account e.g. on V5, but V1,2,3, \n    /// @notice etc. have state vars that need to be included.\n    /// @param _salt A uint256 value to add randomness to the account creation\n    /// @param _label Label for the user's Authereum ENS subdomain\n    /// @param _initData Array of initialize data\n    function createProxy(\n        uint256 _salt, \n        string memory _label,\n        bytes[] memory _initData\n    ) \n        public \n        onlyOwner\n        returns (AuthereumProxy)\n    {\n        address payable addr;\n        bytes memory _initCode = initCode;\n        bytes32 salt = _getSalt(_salt, msg.sender);\n\n        // Create proxy\n        assembly {\n            addr := create2(0, add(_initCode, 0x20), mload(_initCode), salt)\n            if iszero(extcodesize(addr)) {\n                revert(0, 0)\n            }\n        }\n\n        // Loop through initializations of each version of the logic contract\n        bool success;\n        for (uint256 i = 0; i < _initData.length; i++) {\n            require(_initData[i].length != 0, \"APF: Empty initialization data\");\n            (success,) = addr.call(_initData[i]);\n            require(success, \"APF: Unsuccessful account initialization\");\n        }\n\n        // Set ENS name\n        authereumEnsManager.register(_label, addr);\n\n        return AuthereumProxy(addr);\n    }\n\n    /// @dev Generate a salt out of a uint256 value and the sender\n    /// @param _salt A uint256 value to add randomness to the account creation\n    /// @param _sender Sender of the transaction\n    function _getSalt(uint256 _salt, address _sender) internal pure returns (bytes32) {\n        return keccak256(abi.encodePacked(_salt, _sender)); \n    }\n}",
  "sourcePath": "/Users/james/Documents/eth_dev/staked/contracts/contracts/upgradeability/AuthereumProxyFactory.sol",
  "compiler": {
    "name": "solc",
    "version": "0.5.16+commit.9c3226ce.Emscripten.clang"
  },
  "schemaVersion": "3.0.23",
  "updatedAt": "2020-02-16T03:07:49.804Z",
  "devdoc": {
    "methods": {}
  },
  "userdoc": {
    "methods": {}
  }
}