{
  "contractName": "MTP",
  "abi": [
    {
      "inputs": [],
      "payable": false,
      "stateMutability": "nonpayable",
      "type": "constructor"
    },
    {
      "anonymous": false,
      "inputs": [
        {
          "indexed": true,
          "internalType": "address",
          "name": "tokenContractAddress",
          "type": "address"
        },
        {
          "indexed": true,
          "internalType": "uint256",
          "name": "tokenID",
          "type": "uint256"
        },
        {
          "indexed": true,
          "internalType": "address",
          "name": "tokenReceiver",
          "type": "address"
        },
        {
          "indexed": false,
          "internalType": "address",
          "name": "tokenSender",
          "type": "address"
        }
      ],
      "name": "NewMTPTransfer",
      "type": "event"
    },
    {
      "anonymous": false,
      "inputs": [
        {
          "indexed": true,
          "internalType": "address",
          "name": "StakerAddress",
          "type": "address"
        },
        {
          "indexed": true,
          "internalType": "uint256",
          "name": "numberOfStakers",
          "type": "uint256"
        }
      ],
      "name": "StakerAdded",
      "type": "event"
    },
    {
      "anonymous": false,
      "inputs": [
        {
          "indexed": true,
          "internalType": "address",
          "name": "StakerAddress",
          "type": "address"
        },
        {
          "indexed": true,
          "internalType": "uint256",
          "name": "numberOfStakers",
          "type": "uint256"
        }
      ],
      "name": "StakerRemoved",
      "type": "event"
    },
    {
      "anonymous": false,
      "inputs": [
        {
          "indexed": true,
          "internalType": "address",
          "name": "tokenContractAddress",
          "type": "address"
        },
        {
          "indexed": true,
          "internalType": "address",
          "name": "tokenOwner",
          "type": "address"
        },
        {
          "indexed": true,
          "internalType": "uint256",
          "name": "tokenID",
          "type": "uint256"
        }
      ],
      "name": "TokenAdded",
      "type": "event"
    },
    {
      "anonymous": false,
      "inputs": [
        {
          "indexed": true,
          "internalType": "uint256",
          "name": "tokenID",
          "type": "uint256"
        },
        {
          "indexed": true,
          "internalType": "address",
          "name": "tokenHolder",
          "type": "address"
        }
      ],
      "name": "TokenTransferPaused",
      "type": "event"
    },
    {
      "anonymous": false,
      "inputs": [
        {
          "indexed": true,
          "internalType": "uint256",
          "name": "tokenID",
          "type": "uint256"
        },
        {
          "indexed": true,
          "internalType": "address",
          "name": "tokenHolder",
          "type": "address"
        }
      ],
      "name": "TokenTransferUnpaused",
      "type": "event"
    },
    {
      "anonymous": false,
      "inputs": [
        {
          "indexed": true,
          "internalType": "address",
          "name": "tokenContractAddress",
          "type": "address"
        },
        {
          "indexed": true,
          "internalType": "address",
          "name": "tokenOwner",
          "type": "address"
        },
        {
          "indexed": true,
          "internalType": "uint256",
          "name": "tokenID",
          "type": "uint256"
        }
      ],
      "name": "TokenWithdrawal",
      "type": "event"
    },
    {
      "constant": true,
      "inputs": [],
      "name": "ERC721Interface",
      "outputs": [
        {
          "internalType": "contract IERC721",
          "name": "",
          "type": "address"
        }
      ],
      "payable": false,
      "stateMutability": "view",
      "type": "function"
    },
    {
      "constant": true,
      "inputs": [
        {
          "internalType": "address",
          "name": "",
          "type": "address"
        }
      ],
      "name": "balances",
      "outputs": [
        {
          "internalType": "int256",
          "name": "",
          "type": "int256"
        }
      ],
      "payable": false,
      "stateMutability": "view",
      "type": "function"
    },
    {
      "constant": true,
      "inputs": [
        {
          "internalType": "uint256",
          "name": "",
          "type": "uint256"
        },
        {
          "internalType": "uint256",
          "name": "",
          "type": "uint256"
        }
      ],
      "name": "stakeChain",
      "outputs": [
        {
          "internalType": "address",
          "name": "",
          "type": "address"
        }
      ],
      "payable": false,
      "stateMutability": "view",
      "type": "function"
    },
    {
      "constant": true,
      "inputs": [
        {
          "internalType": "uint256",
          "name": "",
          "type": "uint256"
        },
        {
          "internalType": "uint256",
          "name": "",
          "type": "uint256"
        }
      ],
      "name": "stakeQueu",
      "outputs": [
        {
          "internalType": "address",
          "name": "",
          "type": "address"
        }
      ],
      "payable": false,
      "stateMutability": "view",
      "type": "function"
    },
    {
      "constant": true,
      "inputs": [
        {
          "internalType": "address",
          "name": "",
          "type": "address"
        }
      ],
      "name": "stakers",
      "outputs": [
        {
          "internalType": "address",
          "name": "staker_Address_",
          "type": "address"
        },
        {
          "internalType": "int256",
          "name": "staker_Stake_Balance_",
          "type": "int256"
        }
      ],
      "payable": false,
      "stateMutability": "view",
      "type": "function"
    },
    {
      "constant": true,
      "inputs": [
        {
          "internalType": "uint256",
          "name": "",
          "type": "uint256"
        }
      ],
      "name": "tokens",
      "outputs": [
        {
          "internalType": "address",
          "name": "token_Address_",
          "type": "address"
        },
        {
          "internalType": "uint256",
          "name": "token_id_",
          "type": "uint256"
        },
        {
          "internalType": "uint256",
          "name": "token_Stake_Balance_",
          "type": "uint256"
        }
      ],
      "payable": false,
      "stateMutability": "view",
      "type": "function"
    },
    {
      "constant": false,
      "inputs": [
        {
          "internalType": "address",
          "name": "contractAddress",
          "type": "address"
        },
        {
          "internalType": "address",
          "name": "tokenOwner",
          "type": "address"
        },
        {
          "internalType": "uint256",
          "name": "tokenId",
          "type": "uint256"
        }
      ],
      "name": "depositToken",
      "outputs": [],
      "payable": false,
      "stateMutability": "nonpayable",
      "type": "function"
    },
    {
      "constant": false,
      "inputs": [
        {
          "internalType": "address",
          "name": "stakerAddress_",
          "type": "address"
        }
      ],
      "name": "addStaker",
      "outputs": [],
      "payable": false,
      "stateMutability": "nonpayable",
      "type": "function"
    },
    {
      "constant": false,
      "inputs": [
        {
          "internalType": "uint256",
          "name": "tokenId",
          "type": "uint256"
        }
      ],
      "name": "getStakeChainLength",
      "outputs": [
        {
          "internalType": "uint256",
          "name": "",
          "type": "uint256"
        }
      ],
      "payable": false,
      "stateMutability": "nonpayable",
      "type": "function"
    }
  ],
  "bytecode": "0x608060405234801561001057600080fd5b50610981806100206000396000f3fe608060405234801561001057600080fd5b50600436106100935760003560e01c806351eb53101161006657806351eb5310146102285780639168ae721461026a578063999d2983146102f5578063d2d5a4871461033f578063fb0f97a8146103b757610093565b80630e32b1c1146100985780632466696e1461011057806327e235e3146101545780634f64b2be146101ac575b600080fd5b6100ce600480360360408110156100ae57600080fd5b810190808035906020019092919080359060200190929190505050610425565b604051808273ffffffffffffffffffffffffffffffffffffffff1673ffffffffffffffffffffffffffffffffffffffff16815260200191505060405180910390f35b6101526004803603602081101561012657600080fd5b81019080803573ffffffffffffffffffffffffffffffffffffffff169060200190929190505050610470565b005b6101966004803603602081101561016a57600080fd5b81019080803573ffffffffffffffffffffffffffffffffffffffff169060200190929190505050610577565b6040518082815260200191505060405180910390f35b6101d8600480360360208110156101c257600080fd5b810190808035906020019092919050505061058f565b604051808473ffffffffffffffffffffffffffffffffffffffff1673ffffffffffffffffffffffffffffffffffffffff168152602001838152602001828152602001935050505060405180910390f35b6102546004803603602081101561023e57600080fd5b81019080803590602001909291905050506105d9565b6040518082815260200191505060405180910390f35b6102ac6004803603602081101561028057600080fd5b81019080803573ffffffffffffffffffffffffffffffffffffffff1690602001909291905050506105f9565b604051808373ffffffffffffffffffffffffffffffffffffffff1673ffffffffffffffffffffffffffffffffffffffff1681526020018281526020019250505060405180910390f35b6102fd61063d565b604051808273ffffffffffffffffffffffffffffffffffffffff1673ffffffffffffffffffffffffffffffffffffffff16815260200191505060405180910390f35b6103756004803603604081101561035557600080fd5b810190808035906020019092919080359060200190929190505050610662565b604051808273ffffffffffffffffffffffffffffffffffffffff1673ffffffffffffffffffffffffffffffffffffffff16815260200191505060405180910390f35b610423600480360360608110156103cd57600080fd5b81019080803573ffffffffffffffffffffffffffffffffffffffff169060200190929190803573ffffffffffffffffffffffffffffffffffffffff169060200190929190803590602001909291905050506106ad565b005b6004602052816000526040600020818154811061043e57fe5b906000526020600020016000915091509054906101000a900473ffffffffffffffffffffffffffffffffffffffff1681565b6000600360008373ffffffffffffffffffffffffffffffffffffffff1673ffffffffffffffffffffffffffffffffffffffff1681526020019081526020016000208190555060405180604001604052808273ffffffffffffffffffffffffffffffffffffffff1681526020016000815250600260008373ffffffffffffffffffffffffffffffffffffffff1673ffffffffffffffffffffffffffffffffffffffff16815260200190815260200160002060008201518160000160006101000a81548173ffffffffffffffffffffffffffffffffffffffff021916908373ffffffffffffffffffffffffffffffffffffffff1602179055506020820151816001015590505050565b60036020528060005260406000206000915090505481565b60016020528060005260406000206000915090508060000160009054906101000a900473ffffffffffffffffffffffffffffffffffffffff16908060010154908060020154905083565b600060046000838152602001908152602001600020805490509050919050565b60026020528060005260406000206000915090508060000160009054906101000a900473ffffffffffffffffffffffffffffffffffffffff16908060010154905082565b6000809054906101000a900473ffffffffffffffffffffffffffffffffffffffff1681565b6005602052816000526040600020818154811061067b57fe5b906000526020600020016000915091509054906101000a900473ffffffffffffffffffffffffffffffffffffffff1681565b8173ffffffffffffffffffffffffffffffffffffffff16600260008473ffffffffffffffffffffffffffffffffffffffff1673ffffffffffffffffffffffffffffffffffffffff16815260200190815260200160002060000160009054906101000a900473ffffffffffffffffffffffffffffffffffffffff1673ffffffffffffffffffffffffffffffffffffffff161461074c5761074b82610470565b5b8273ffffffffffffffffffffffffffffffffffffffff16600260008573ffffffffffffffffffffffffffffffffffffffff1673ffffffffffffffffffffffffffffffffffffffff16815260200190815260200160002060000160009054906101000a900473ffffffffffffffffffffffffffffffffffffffff1673ffffffffffffffffffffffffffffffffffffffff16146107eb576107ea83610470565b5b6000600160008381526020019081526020016000209050838160000160006101000a81548173ffffffffffffffffffffffffffffffffffffffff021916908373ffffffffffffffffffffffffffffffffffffffff16021790555081816001018190555060018160020181905550600460008381526020019081526020016000208490806001815401808255809150509060018203906000526020600020016000909192909190916101000a81548173ffffffffffffffffffffffffffffffffffffffff021916908373ffffffffffffffffffffffffffffffffffffffff16021790555050600460008381526020019081526020016000208390806001815401808255809150509060018203906000526020600020016000909192909190916101000a81548173ffffffffffffffffffffffffffffffffffffffff021916908373ffffffffffffffffffffffffffffffffffffffff160217905550505050505056fea265627a7a72315820eb9bc6355c3f6f1b7661061309ce2dcfdff7e32e848dec5323aaf506703c24d864736f6c63430005100032",
  "source": "// Pragma statements\npragma solidity ^0.5.12;\n\n// Import statements\nimport \"@openzeppelin/contracts/token/ERC721/IERC721.sol\";\n\n\n\n// Interfaces\n// Libraries\n// Contracts\n\ncontract MTP {\n\n    //constructor\n    constructor() public {\n        // ...\n    }\n\n    IERC721 public ERC721Interface;\n\n// Type declarations\n// State variables\n    mapping(uint256 => Token) public tokens;//maps token id to token struct\n    mapping(address => Staker) public stakers;\n    mapping(address => int256) public balances; //bibo balances. can be positive or negative;\n    mapping(uint256 => address[]) public stakeChain;  //maps a token id to an array of staker addresses\n    mapping(uint256 => address[]) public stakeQueu; //pending transfer callers of token when paused\n\n\n    struct Staker { //change to TokenStaker\n        address staker_Address_; //redundant\n        int staker_Stake_Balance_; //must support negative integers\n    }\n\n    struct Token {\n        address token_Address_; //this is redundant\n        uint256 token_id_; //for nft tokens\n        uint token_Stake_Balance_;\n        //bool isPausable?\n        //bool isPaused?\n    }\n\n// Events\n    //StakerAdded\n        event StakerAdded(\n            address indexed StakerAddress,\n            uint indexed numberOfStakers\n        );\n    //TokenAdded\n        event TokenAdded(\n            address indexed tokenContractAddress,\n            address indexed tokenOwner,\n            uint256 indexed tokenID\n        );\n    //newMTPTransfer\n        event NewMTPTransfer(\n            address indexed tokenContractAddress,\n            uint256 indexed tokenID,\n            address indexed tokenReceiver,\n            address tokenSender\n        );\n    //TokenTranferPaused\n        event TokenTransferPaused(\n            uint256 indexed tokenID,\n            address indexed tokenHolder\n        );\n    //TokenTransferUnpaused\n        event TokenTransferUnpaused(\n            uint256 indexed tokenID,\n            address indexed tokenHolder\n        );\n    //TokenWithdrawn\n        event TokenWithdrawal(\n            address indexed tokenContractAddress,\n            address indexed tokenOwner,\n            uint256 indexed tokenID\n        );\n    //StakerRemoved\n        event StakerRemoved(\n            address indexed StakerAddress,\n            uint indexed numberOfStakers\n        );\n    //newMTPNetworkDeployed\n    //newProxyFactoryDeployed\n    //ProxyCreated\n\n\n\n// Functions\n\n    // External functions\n    // external - Cannot be accessed internally, only externally\n\n    // External functions that are view\n    // ...\n\n    // External functions that are pure\n    // ...\n\n    // Public functions\n    //public - all can accesscontract\n        // depositToken\n    function depositToken(address contractAddress, address tokenOwner, uint256 tokenId) public {\n        if(stakers[tokenOwner].staker_Address_ != tokenOwner) {\n            addStaker(tokenOwner);\n        }\n        if(stakers[contractAddress].staker_Address_ != contractAddress) {\n            addStaker(contractAddress);\n        }\n        Token storage t_ = tokens[tokenId];\n        t_.token_Address_ = contractAddress;\n        t_.token_id_ = tokenId;\n        t_.token_Stake_Balance_ = 1;\n        stakeChain[tokenId].push(contractAddress);\n        stakeChain[tokenId].push(tokenOwner);\n    }\n        // withdrawToken\n\n\n    function addStaker(address stakerAddress_) public {\n        balances[stakerAddress_] = 0;\n        stakers[stakerAddress_] = Staker(\n            {\n                staker_Address_: stakerAddress_,\n                staker_Stake_Balance_: 0\n            }\n        );\n    }\n        // addStakerToQeue\n        // removeStaker\n        // getStakeChainLength\n    function getStakeChainLength(uint256 tokenId) public returns (uint) {\n        return stakeChain[tokenId].length;\n    }\n        // mtpTransfer\n        // pauseTransfer\n\n    // Internal functions\n    //internal - only this  and contracts deriving from it can access\n        // isMTPToken\n\n    // Private functions\n    //private - can be accessed only from this contract\n        // updateBiboBalances\n\n    function updateBiboBalances(uint256 tokenId) private {\n        address[] memory tokenStakeChain = stakeChain[tokenId];\n\n        for(uint i = 0; i < tokenStakeChain.length; i++) {\n            address currentStakerAddress = tokenStakeChain[i];\n            uint stakersBefore = i;\n            uint stakersAfter = tokenStakeChain.length - (i + 1);\n            int  stakerNewStakes = int256(stakersAfter) - int256(stakersBefore);\n            balances[currentStakerAddress] += stakerNewStakes;\n        }\n    }\n}\n\n",
  "sourcePath": "/Users/harish/Downloads/stake-trial/contracts/MTP.sol",
  "compiler": {
    "name": "solc",
    "version": "0.5.16+commit.9c3226ce.Emscripten.clang"
  },
  "schemaVersion": "3.0.19",
  "updatedAt": "2020-02-15T23:33:20.317Z",
  "devdoc": {
    "methods": {}
  },
  "userdoc": {
    "methods": {}
  }
}