{
  "contractName": "MTP",
  "abi": [
    {
      "inputs": [],
      "payable": false,
      "stateMutability": "nonpayable",
      "type": "constructor"
    },
    {
      "anonymous": false,
      "inputs": [
        {
          "indexed": true,
          "internalType": "address",
          "name": "tokenContractAddress",
          "type": "address"
        },
        {
          "indexed": true,
          "internalType": "uint256",
          "name": "tokenID",
          "type": "uint256"
        },
        {
          "indexed": true,
          "internalType": "address",
          "name": "tokenReceiver",
          "type": "address"
        },
        {
          "indexed": false,
          "internalType": "address",
          "name": "tokenSender",
          "type": "address"
        }
      ],
      "name": "NewMTPTransfer",
      "type": "event"
    },
    {
      "anonymous": false,
      "inputs": [
        {
          "indexed": true,
          "internalType": "address",
          "name": "StakerAddress",
          "type": "address"
        },
        {
          "indexed": true,
          "internalType": "uint256",
          "name": "numberOfStakers",
          "type": "uint256"
        }
      ],
      "name": "StakerAdded",
      "type": "event"
    },
    {
      "anonymous": false,
      "inputs": [
        {
          "indexed": true,
          "internalType": "address",
          "name": "StakerAddress",
          "type": "address"
        },
        {
          "indexed": true,
          "internalType": "uint256",
          "name": "numberOfStakers",
          "type": "uint256"
        }
      ],
      "name": "StakerRemoved",
      "type": "event"
    },
    {
      "anonymous": false,
      "inputs": [
        {
          "indexed": true,
          "internalType": "address",
          "name": "tokenContractAddress",
          "type": "address"
        },
        {
          "indexed": true,
          "internalType": "address",
          "name": "tokenOwner",
          "type": "address"
        },
        {
          "indexed": true,
          "internalType": "uint256",
          "name": "tokenID",
          "type": "uint256"
        }
      ],
      "name": "TokenAdded",
      "type": "event"
    },
    {
      "anonymous": false,
      "inputs": [
        {
          "indexed": true,
          "internalType": "uint256",
          "name": "tokenID",
          "type": "uint256"
        },
        {
          "indexed": true,
          "internalType": "address",
          "name": "tokenHolder",
          "type": "address"
        }
      ],
      "name": "TokenTransferPaused",
      "type": "event"
    },
    {
      "anonymous": false,
      "inputs": [
        {
          "indexed": true,
          "internalType": "uint256",
          "name": "tokenID",
          "type": "uint256"
        },
        {
          "indexed": true,
          "internalType": "address",
          "name": "tokenHolder",
          "type": "address"
        }
      ],
      "name": "TokenTransferUnpaused",
      "type": "event"
    },
    {
      "anonymous": false,
      "inputs": [
        {
          "indexed": true,
          "internalType": "address",
          "name": "tokenContractAddress",
          "type": "address"
        },
        {
          "indexed": true,
          "internalType": "address",
          "name": "tokenOwner",
          "type": "address"
        },
        {
          "indexed": true,
          "internalType": "uint256",
          "name": "tokenID",
          "type": "uint256"
        }
      ],
      "name": "TokenWithdrawal",
      "type": "event"
    },
    {
      "constant": true,
      "inputs": [],
      "name": "ERC721Interface",
      "outputs": [
        {
          "internalType": "contract IERC721",
          "name": "",
          "type": "address"
        }
      ],
      "payable": false,
      "stateMutability": "view",
      "type": "function"
    },
    {
      "constant": true,
      "inputs": [
        {
          "internalType": "address",
          "name": "",
          "type": "address"
        }
      ],
      "name": "balances",
      "outputs": [
        {
          "internalType": "int256",
          "name": "",
          "type": "int256"
        }
      ],
      "payable": false,
      "stateMutability": "view",
      "type": "function"
    },
    {
      "constant": true,
      "inputs": [
        {
          "internalType": "uint256",
          "name": "",
          "type": "uint256"
        },
        {
          "internalType": "uint256",
          "name": "",
          "type": "uint256"
        }
      ],
      "name": "stakeChain",
      "outputs": [
        {
          "internalType": "address",
          "name": "",
          "type": "address"
        }
      ],
      "payable": false,
      "stateMutability": "view",
      "type": "function"
    },
    {
      "constant": true,
      "inputs": [
        {
          "internalType": "uint256",
          "name": "",
          "type": "uint256"
        },
        {
          "internalType": "uint256",
          "name": "",
          "type": "uint256"
        }
      ],
      "name": "stakeQueu",
      "outputs": [
        {
          "internalType": "address",
          "name": "",
          "type": "address"
        }
      ],
      "payable": false,
      "stateMutability": "view",
      "type": "function"
    },
    {
      "constant": true,
      "inputs": [
        {
          "internalType": "address",
          "name": "",
          "type": "address"
        }
      ],
      "name": "stakers",
      "outputs": [
        {
          "internalType": "address",
          "name": "staker_Address_",
          "type": "address"
        },
        {
          "internalType": "int256",
          "name": "staker_Stake_Balance_",
          "type": "int256"
        }
      ],
      "payable": false,
      "stateMutability": "view",
      "type": "function"
    },
    {
      "constant": true,
      "inputs": [
        {
          "internalType": "uint256",
          "name": "",
          "type": "uint256"
        }
      ],
      "name": "tokens",
      "outputs": [
        {
          "internalType": "address",
          "name": "token_Address_",
          "type": "address"
        },
        {
          "internalType": "uint256",
          "name": "token_id_",
          "type": "uint256"
        },
        {
          "internalType": "uint256",
          "name": "token_Stake_Balance_",
          "type": "uint256"
        }
      ],
      "payable": false,
      "stateMutability": "view",
      "type": "function"
    },
    {
      "constant": false,
      "inputs": [
        {
          "internalType": "address",
          "name": "contractAddress",
          "type": "address"
        },
        {
          "internalType": "address",
          "name": "tokenOwner",
          "type": "address"
        },
        {
          "internalType": "uint256",
          "name": "tokenId",
          "type": "uint256"
        }
      ],
      "name": "depositToken",
      "outputs": [],
      "payable": false,
      "stateMutability": "nonpayable",
      "type": "function"
    },
    {
      "constant": false,
      "inputs": [
        {
          "internalType": "address",
          "name": "stakerAddress_",
          "type": "address"
        }
      ],
      "name": "addStaker",
      "outputs": [],
      "payable": false,
      "stateMutability": "nonpayable",
      "type": "function"
    }
  ],
  "bytecode": "0x608060405234801561001057600080fd5b50610914806100206000396000f3fe608060405234801561001057600080fd5b50600436106100885760003560e01c80639168ae721161005b5780639168ae721461021d578063999d2983146102a8578063d2d5a487146102f2578063fb0f97a81461036a57610088565b80630e32b1c11461008d5780632466696e1461010557806327e235e3146101495780634f64b2be146101a1575b600080fd5b6100c3600480360360408110156100a357600080fd5b8101908080359060200190929190803590602001909291905050506103d8565b604051808273ffffffffffffffffffffffffffffffffffffffff1673ffffffffffffffffffffffffffffffffffffffff16815260200191505060405180910390f35b6101476004803603602081101561011b57600080fd5b81019080803573ffffffffffffffffffffffffffffffffffffffff169060200190929190505050610423565b005b61018b6004803603602081101561015f57600080fd5b81019080803573ffffffffffffffffffffffffffffffffffffffff16906020019092919050505061052a565b6040518082815260200191505060405180910390f35b6101cd600480360360208110156101b757600080fd5b8101908080359060200190929190505050610542565b604051808473ffffffffffffffffffffffffffffffffffffffff1673ffffffffffffffffffffffffffffffffffffffff168152602001838152602001828152602001935050505060405180910390f35b61025f6004803603602081101561023357600080fd5b81019080803573ffffffffffffffffffffffffffffffffffffffff16906020019092919050505061058c565b604051808373ffffffffffffffffffffffffffffffffffffffff1673ffffffffffffffffffffffffffffffffffffffff1681526020018281526020019250505060405180910390f35b6102b06105d0565b604051808273ffffffffffffffffffffffffffffffffffffffff1673ffffffffffffffffffffffffffffffffffffffff16815260200191505060405180910390f35b6103286004803603604081101561030857600080fd5b8101908080359060200190929190803590602001909291905050506105f5565b604051808273ffffffffffffffffffffffffffffffffffffffff1673ffffffffffffffffffffffffffffffffffffffff16815260200191505060405180910390f35b6103d66004803603606081101561038057600080fd5b81019080803573ffffffffffffffffffffffffffffffffffffffff169060200190929190803573ffffffffffffffffffffffffffffffffffffffff16906020019092919080359060200190929190505050610640565b005b600460205281600052604060002081815481106103f157fe5b906000526020600020016000915091509054906101000a900473ffffffffffffffffffffffffffffffffffffffff1681565b6000600360008373ffffffffffffffffffffffffffffffffffffffff1673ffffffffffffffffffffffffffffffffffffffff1681526020019081526020016000208190555060405180604001604052808273ffffffffffffffffffffffffffffffffffffffff1681526020016000815250600260008373ffffffffffffffffffffffffffffffffffffffff1673ffffffffffffffffffffffffffffffffffffffff16815260200190815260200160002060008201518160000160006101000a81548173ffffffffffffffffffffffffffffffffffffffff021916908373ffffffffffffffffffffffffffffffffffffffff1602179055506020820151816001015590505050565b60036020528060005260406000206000915090505481565b60016020528060005260406000206000915090508060000160009054906101000a900473ffffffffffffffffffffffffffffffffffffffff16908060010154908060020154905083565b60026020528060005260406000206000915090508060000160009054906101000a900473ffffffffffffffffffffffffffffffffffffffff16908060010154905082565b6000809054906101000a900473ffffffffffffffffffffffffffffffffffffffff1681565b6005602052816000526040600020818154811061060e57fe5b906000526020600020016000915091509054906101000a900473ffffffffffffffffffffffffffffffffffffffff1681565b8173ffffffffffffffffffffffffffffffffffffffff16600260008473ffffffffffffffffffffffffffffffffffffffff1673ffffffffffffffffffffffffffffffffffffffff16815260200190815260200160002060000160009054906101000a900473ffffffffffffffffffffffffffffffffffffffff1673ffffffffffffffffffffffffffffffffffffffff16146106df576106de82610423565b5b8273ffffffffffffffffffffffffffffffffffffffff16600260008573ffffffffffffffffffffffffffffffffffffffff1673ffffffffffffffffffffffffffffffffffffffff16815260200190815260200160002060000160009054906101000a900473ffffffffffffffffffffffffffffffffffffffff1673ffffffffffffffffffffffffffffffffffffffff161461077e5761077d83610423565b5b6000600160008381526020019081526020016000209050838160000160006101000a81548173ffffffffffffffffffffffffffffffffffffffff021916908373ffffffffffffffffffffffffffffffffffffffff16021790555081816001018190555060018160020181905550600460008381526020019081526020016000208490806001815401808255809150509060018203906000526020600020016000909192909190916101000a81548173ffffffffffffffffffffffffffffffffffffffff021916908373ffffffffffffffffffffffffffffffffffffffff16021790555050600460008381526020019081526020016000208390806001815401808255809150509060018203906000526020600020016000909192909190916101000a81548173ffffffffffffffffffffffffffffffffffffffff021916908373ffffffffffffffffffffffffffffffffffffffff160217905550505050505056fea265627a7a72315820d52d0f2fad23d069b2929241908e77addad2be1c190f0cdbe9a8092efb8a471b64736f6c634300050c0032",
  "source": "// Pragma statements\r\npragma solidity 0.5.12;\r\n\r\n// Import statements\r\nimport \"@openzeppelin/contracts/token/ERC721/IERC721.sol\";\r\n\r\n\r\n\r\n// Interfaces\r\n// Libraries\r\n// Contracts\r\n\r\ncontract MTP {\r\n\r\n    //constructor\r\n    constructor() public {\r\n        // ...\r\n    }\r\n\r\n    IERC721 public ERC721Interface;\r\n\r\n// Type declarations\r\n// State variables\r\n    mapping(uint256 => Token) public tokens;//maps token id to token struct\r\n    mapping(address => Staker) public stakers;\r\n    mapping(address => int256) public balances; //bibo balances. can be positive or negative;\r\n    mapping(uint256 => address[]) public stakeChain;  //maps a token id to an array of staker addresses\r\n    mapping(uint256 => address[]) public stakeQueu; //pending transfer callers of token when paused\r\n\r\n\r\n    struct Staker { //change to TokenStaker\r\n        address staker_Address_; //redundant\r\n        int staker_Stake_Balance_; //must support negative integers\r\n    }\r\n\r\n    struct Token {\r\n        address token_Address_; //this is redundant\r\n        uint256 token_id_; //for nft tokens\r\n        uint token_Stake_Balance_;\r\n        //bool isPausable?\r\n        //bool isPaused?\r\n    }\r\n\r\n// Events\r\n    //StakerAdded\r\n        event StakerAdded(\r\n            address indexed StakerAddress,\r\n            uint indexed numberOfStakers\r\n        );\r\n    //TokenAdded\r\n        event TokenAdded(\r\n            address indexed tokenContractAddress,\r\n            address indexed tokenOwner,\r\n            uint256 indexed tokenID\r\n        );\r\n    //newMTPTransfer\r\n        event NewMTPTransfer(\r\n            address indexed tokenContractAddress,\r\n            uint256 indexed tokenID,\r\n            address indexed tokenReceiver,\r\n            address tokenSender\r\n        );\r\n    //TokenTranferPaused\r\n        event TokenTransferPaused(\r\n            uint256 indexed tokenID,\r\n            address indexed tokenHolder\r\n        );\r\n    //TokenTransferUnpaused\r\n        event TokenTransferUnpaused(\r\n            uint256 indexed tokenID,\r\n            address indexed tokenHolder\r\n        );\r\n    //TokenWithdrawn\r\n        event TokenWithdrawal(\r\n            address indexed tokenContractAddress,\r\n            address indexed tokenOwner,\r\n            uint256 indexed tokenID\r\n        );\r\n    //StakerRemoved\r\n        event StakerRemoved(\r\n            address indexed StakerAddress,\r\n            uint indexed numberOfStakers\r\n        );\r\n    //newMTPNetworkDeployed\r\n    //newProxyFactoryDeployed\r\n    //ProxyCreated\r\n\r\n\r\n\r\n// Functions\r\n\r\n    // External functions\r\n    // external - Cannot be accessed internally, only externally\r\n\r\n    // External functions that are view\r\n    // ...\r\n\r\n    // External functions that are pure\r\n    // ...\r\n\r\n    // Public functions\r\n    //public - all can accesscontract\r\n        // depositToken\r\n    function depositToken(address contractAddress, address tokenOwner, uint256 tokenId) public {\r\n        if(stakers[tokenOwner].staker_Address_ != tokenOwner) {\r\n            addStaker(tokenOwner);\r\n        }\r\n        if(stakers[contractAddress].staker_Address_ != contractAddress) {\r\n            addStaker(contractAddress);\r\n        }\r\n        Token storage t_ = tokens[tokenId];\r\n        t_.token_Address_ = contractAddress;\r\n        t_.token_id_ = tokenId;\r\n        t_.token_Stake_Balance_ = 1;\r\n        stakeChain[tokenId].push(contractAddress);\r\n        stakeChain[tokenId].push(tokenOwner);\r\n    }\r\n        // withdrawToken\r\n        \r\n    function addStaker(address stakerAddress_) public {\r\n        balances[stakerAddress_] = 0;\r\n        stakers[stakerAddress_] = Staker(\r\n            {\r\n                staker_Address_: stakerAddress_,\r\n                staker_Stake_Balance_: 0\r\n            }\r\n        );\r\n    }\r\n        // addStakerToQeue\r\n        // removeStaker\r\n        // getStakeChainLength\r\n        // mtpTransfer\r\n        // pauseTransfer\r\n\r\n    // Internal functions\r\n    //internal - only this  and contracts deriving from it can access\r\n        // isMTPToken\r\n\r\n    // Private functions\r\n    //private - can be accessed only from this contract\r\n        // updateBiboBalances\r\n}\r\n\r\n",
  "sourcePath": "C:/Users/wadet/Documents/dapps/ethDenver/stakeTrial/contracts/MTP.sol",
  "compiler": {
    "name": "solc",
    "version": "0.5.12+commit.7709ece9.Emscripten.clang"
  },
  "schemaVersion": "3.0.20",
  "updatedAt": "2020-02-15T22:31:57.992Z",
  "devdoc": {
    "methods": {}
  },
  "userdoc": {
    "methods": {}
  }
}