{
  "contractName": "MTP",
  "abi": [
    {
      "inputs": [],
      "payable": false,
      "stateMutability": "nonpayable",
      "type": "constructor"
    },
    {
      "anonymous": false,
      "inputs": [
        {
          "indexed": true,
          "internalType": "address",
          "name": "tokenContractAddress",
          "type": "address"
        },
        {
          "indexed": true,
          "internalType": "uint256",
          "name": "tokenID",
          "type": "uint256"
        },
        {
          "indexed": true,
          "internalType": "address",
          "name": "tokenReceiver",
          "type": "address"
        },
        {
          "indexed": false,
          "internalType": "address",
          "name": "tokenSender",
          "type": "address"
        }
      ],
      "name": "NewMTPTransfer",
      "type": "event"
    },
    {
      "anonymous": false,
      "inputs": [
        {
          "indexed": true,
          "internalType": "address",
          "name": "stakerAddress",
          "type": "address"
        }
      ],
      "name": "StakerAdded",
      "type": "event"
    },
    {
      "anonymous": false,
      "inputs": [
        {
          "indexed": true,
          "internalType": "address",
          "name": "StakerAddress",
          "type": "address"
        },
        {
          "indexed": true,
          "internalType": "uint256",
          "name": "numberOfStakers",
          "type": "uint256"
        }
      ],
      "name": "StakerRemoved",
      "type": "event"
    },
    {
      "anonymous": false,
      "inputs": [
        {
          "indexed": true,
          "internalType": "address",
          "name": "tokenContractAddress",
          "type": "address"
        },
        {
          "indexed": true,
          "internalType": "address",
          "name": "tokenOwner",
          "type": "address"
        },
        {
          "indexed": true,
          "internalType": "uint256",
          "name": "tokenID",
          "type": "uint256"
        }
      ],
      "name": "TokenAdded",
      "type": "event"
    },
    {
      "anonymous": false,
      "inputs": [
        {
          "indexed": true,
          "internalType": "address",
          "name": "tokenContractAddress",
          "type": "address"
        },
        {
          "indexed": true,
          "internalType": "address",
          "name": "tokenOwner",
          "type": "address"
        },
        {
          "indexed": true,
          "internalType": "uint256",
          "name": "tokenId",
          "type": "uint256"
        }
      ],
      "name": "TokenPaused",
      "type": "event"
    },
    {
      "anonymous": false,
      "inputs": [
        {
          "indexed": true,
          "internalType": "uint256",
          "name": "tokenId",
          "type": "uint256"
        },
        {
          "indexed": true,
          "internalType": "address",
          "name": "tokenHolder",
          "type": "address"
        }
      ],
      "name": "TokenTransferPaused",
      "type": "event"
    },
    {
      "anonymous": false,
      "inputs": [
        {
          "indexed": true,
          "internalType": "uint256",
          "name": "tokenId",
          "type": "uint256"
        },
        {
          "indexed": true,
          "internalType": "address",
          "name": "tokenHolder",
          "type": "address"
        }
      ],
      "name": "TokenTransferUnpaused",
      "type": "event"
    },
    {
      "anonymous": false,
      "inputs": [
        {
          "indexed": true,
          "internalType": "address",
          "name": "tokenContractAddress",
          "type": "address"
        },
        {
          "indexed": true,
          "internalType": "address",
          "name": "tokenOwner",
          "type": "address"
        },
        {
          "indexed": true,
          "internalType": "uint256",
          "name": "tokenId",
          "type": "uint256"
        }
      ],
      "name": "TokenWithdrawal",
      "type": "event"
    },
    {
      "constant": true,
      "inputs": [],
      "name": "ERC721Interface",
      "outputs": [
        {
          "internalType": "contract IERC721",
          "name": "",
          "type": "address"
        }
      ],
      "payable": false,
      "stateMutability": "view",
      "type": "function"
    },
    {
      "constant": true,
      "inputs": [
        {
          "internalType": "address",
          "name": "",
          "type": "address"
        }
      ],
      "name": "balances",
      "outputs": [
        {
          "internalType": "int256",
          "name": "",
          "type": "int256"
        }
      ],
      "payable": false,
      "stateMutability": "view",
      "type": "function"
    },
    {
      "constant": true,
      "inputs": [
        {
          "internalType": "uint256",
          "name": "",
          "type": "uint256"
        },
        {
          "internalType": "uint256",
          "name": "",
          "type": "uint256"
        }
      ],
      "name": "stakeChain",
      "outputs": [
        {
          "internalType": "address",
          "name": "",
          "type": "address"
        }
      ],
      "payable": false,
      "stateMutability": "view",
      "type": "function"
    },
    {
      "constant": true,
      "inputs": [
        {
          "internalType": "uint256",
          "name": "",
          "type": "uint256"
        },
        {
          "internalType": "uint256",
          "name": "",
          "type": "uint256"
        }
      ],
      "name": "stakeQueu",
      "outputs": [
        {
          "internalType": "address",
          "name": "",
          "type": "address"
        }
      ],
      "payable": false,
      "stateMutability": "view",
      "type": "function"
    },
    {
      "constant": true,
      "inputs": [
        {
          "internalType": "address",
          "name": "",
          "type": "address"
        }
      ],
      "name": "stakers",
      "outputs": [
        {
          "internalType": "address",
          "name": "staker_Address_",
          "type": "address"
        },
        {
          "internalType": "int256",
          "name": "staker_Stake_Balance_",
          "type": "int256"
        }
      ],
      "payable": false,
      "stateMutability": "view",
      "type": "function"
    },
    {
      "constant": true,
      "inputs": [
        {
          "internalType": "uint256",
          "name": "",
          "type": "uint256"
        }
      ],
      "name": "tokens",
      "outputs": [
        {
          "internalType": "address",
          "name": "token_Address_",
          "type": "address"
        },
        {
          "internalType": "uint256",
          "name": "token_id_",
          "type": "uint256"
        },
        {
          "internalType": "uint256",
          "name": "token_Stake_Balance_",
          "type": "uint256"
        },
        {
          "internalType": "bool",
          "name": "is_paused_",
          "type": "bool"
        }
      ],
      "payable": false,
      "stateMutability": "view",
      "type": "function"
    },
    {
      "constant": false,
      "inputs": [
        {
          "internalType": "address",
          "name": "contractAddress",
          "type": "address"
        },
        {
          "internalType": "address",
          "name": "tokenOwner",
          "type": "address"
        },
        {
          "internalType": "uint256",
          "name": "tokenId",
          "type": "uint256"
        }
      ],
      "name": "depositToken",
      "outputs": [],
      "payable": false,
      "stateMutability": "nonpayable",
      "type": "function"
    },
    {
      "constant": false,
      "inputs": [
        {
          "internalType": "address",
          "name": "stakerAddress_",
          "type": "address"
        }
      ],
      "name": "addStaker",
      "outputs": [],
      "payable": false,
      "stateMutability": "nonpayable",
      "type": "function"
    },
    {
      "constant": false,
      "inputs": [
        {
          "internalType": "uint256",
          "name": "tokenId",
          "type": "uint256"
        }
      ],
      "name": "getStakeChainLength",
      "outputs": [
        {
          "internalType": "uint256",
          "name": "",
          "type": "uint256"
        }
      ],
      "payable": false,
      "stateMutability": "nonpayable",
      "type": "function"
    },
    {
      "constant": false,
      "inputs": [
        {
          "internalType": "address",
          "name": "tokenContract_",
          "type": "address"
        },
        {
          "internalType": "address",
          "name": "to_",
          "type": "address"
        },
        {
          "internalType": "uint256",
          "name": "tokenId_",
          "type": "uint256"
        }
      ],
      "name": "mtpTransfer",
      "outputs": [],
      "payable": false,
      "stateMutability": "nonpayable",
      "type": "function"
    },
    {
      "constant": false,
      "inputs": [
        {
          "internalType": "address",
          "name": "tokenContract_",
          "type": "address"
        },
        {
          "internalType": "uint256",
          "name": "tokenId",
          "type": "uint256"
        },
        {
          "internalType": "address",
          "name": "tokenHolder",
          "type": "address"
        }
      ],
      "name": "pauseTransfer",
      "outputs": [],
      "payable": false,
      "stateMutability": "nonpayable",
      "type": "function"
    }
  ],
  "bytecode": "0x608060405234801561001057600080fd5b506110a2806100206000396000f3fe608060405234801561001057600080fd5b50600436106100a95760003560e01c806351eb53101161007157806351eb5310146102b75780639168ae72146102f9578063999d298314610384578063d2d5a487146103ce578063f0b845df14610446578063fb0f97a8146104b4576100a9565b80630e32b1c1146100ae5780632466696e1461012657806327e235e31461016a578063485b758f146101c25780634f64b2be14610230575b600080fd5b6100e4600480360360408110156100c457600080fd5b810190808035906020019092919080359060200190929190505050610522565b604051808273ffffffffffffffffffffffffffffffffffffffff1673ffffffffffffffffffffffffffffffffffffffff16815260200191505060405180910390f35b6101686004803603602081101561013c57600080fd5b81019080803573ffffffffffffffffffffffffffffffffffffffff16906020019092919050505061056d565b005b6101ac6004803603602081101561018057600080fd5b81019080803573ffffffffffffffffffffffffffffffffffffffff1690602001909291905050506106b7565b6040518082815260200191505060405180910390f35b61022e600480360360608110156101d857600080fd5b81019080803573ffffffffffffffffffffffffffffffffffffffff16906020019092919080359060200190929190803573ffffffffffffffffffffffffffffffffffffffff1690602001909291905050506106cf565b005b61025c6004803603602081101561024657600080fd5b81019080803590602001909291905050506107ac565b604051808573ffffffffffffffffffffffffffffffffffffffff1673ffffffffffffffffffffffffffffffffffffffff1681526020018481526020018381526020018215151515815260200194505050505060405180910390f35b6102e3600480360360208110156102cd57600080fd5b8101908080359060200190929190505050610809565b6040518082815260200191505060405180910390f35b61033b6004803603602081101561030f57600080fd5b81019080803573ffffffffffffffffffffffffffffffffffffffff169060200190929190505050610829565b604051808373ffffffffffffffffffffffffffffffffffffffff1673ffffffffffffffffffffffffffffffffffffffff1681526020018281526020019250505060405180910390f35b61038c61086d565b604051808273ffffffffffffffffffffffffffffffffffffffff1673ffffffffffffffffffffffffffffffffffffffff16815260200191505060405180910390f35b610404600480360360408110156103e457600080fd5b810190808035906020019092919080359060200190929190505050610892565b604051808273ffffffffffffffffffffffffffffffffffffffff1673ffffffffffffffffffffffffffffffffffffffff16815260200191505060405180910390f35b6104b26004803603606081101561045c57600080fd5b81019080803573ffffffffffffffffffffffffffffffffffffffff169060200190929190803573ffffffffffffffffffffffffffffffffffffffff169060200190929190803590602001909291905050506108dd565b005b610520600480360360608110156104ca57600080fd5b81019080803573ffffffffffffffffffffffffffffffffffffffff169060200190929190803573ffffffffffffffffffffffffffffffffffffffff16906020019092919080359060200190929190505050610bd9565b005b6004602052816000526040600020818154811061053b57fe5b906000526020600020016000915091509054906101000a900473ffffffffffffffffffffffffffffffffffffffff1681565b6000600360008373ffffffffffffffffffffffffffffffffffffffff1673ffffffffffffffffffffffffffffffffffffffff1681526020019081526020016000208190555060405180604001604052808273ffffffffffffffffffffffffffffffffffffffff1681526020016000815250600260008373ffffffffffffffffffffffffffffffffffffffff1673ffffffffffffffffffffffffffffffffffffffff16815260200190815260200160002060008201518160000160006101000a81548173ffffffffffffffffffffffffffffffffffffffff021916908373ffffffffffffffffffffffffffffffffffffffff160217905550602082015181600101559050508073ffffffffffffffffffffffffffffffffffffffff167fc0687b34adb081bf19c87a2a0a5bb56c4a9584ee8c67fce683c3fac163c27eb860405160405180910390a250565b60036020528060005260406000206000915090505481565b6000600360008373ffffffffffffffffffffffffffffffffffffffff1673ffffffffffffffffffffffffffffffffffffffff168152602001908152602001600020541261074c57600060016000848152602001908152602001600020905060018160030160006101000a81548160ff021916908315150217905550505b818173ffffffffffffffffffffffffffffffffffffffff168473ffffffffffffffffffffffffffffffffffffffff167ffeda6f0652811a371a5069b6a667af4b98cfd9417740aca1a485134fe1db82b660405160405180910390a4505050565b60016020528060005260406000206000915090508060000160009054906101000a900473ffffffffffffffffffffffffffffffffffffffff16908060010154908060020154908060030160009054906101000a900460ff16905084565b600060046000838152602001908152602001600020805490509050919050565b60026020528060005260406000206000915090508060000160009054906101000a900473ffffffffffffffffffffffffffffffffffffffff16908060010154905082565b6000809054906101000a900473ffffffffffffffffffffffffffffffffffffffff1681565b600560205281600052604060002081815481106108ab57fe5b906000526020600020016000915091509054906101000a900473ffffffffffffffffffffffffffffffffffffffff1681565b6108e681610ed3565b61093b576040517f08c379a00000000000000000000000000000000000000000000000000000000081526004018080602001828103825260368152602001806110386036913960400191505060405180910390fd5b60003390508273ffffffffffffffffffffffffffffffffffffffff16600260008573ffffffffffffffffffffffffffffffffffffffff1673ffffffffffffffffffffffffffffffffffffffff16815260200190815260200160002060000160009054906101000a900473ffffffffffffffffffffffffffffffffffffffff1673ffffffffffffffffffffffffffffffffffffffff16146109df576109de8361056d565b5b6000600160008481526020019081526020016000209050600460008481526020019081526020016000208490806001815401808255809150509060018203906000526020600020016000909192909190916101000a81548173ffffffffffffffffffffffffffffffffffffffff021916908373ffffffffffffffffffffffffffffffffffffffff1602179055505060046000848152602001908152602001600020805490508160020160008282540192505081905550610a9e83610efa565b846000806101000a81548173ffffffffffffffffffffffffffffffffffffffff021916908373ffffffffffffffffffffffffffffffffffffffff1602179055506000809054906101000a900473ffffffffffffffffffffffffffffffffffffffff1673ffffffffffffffffffffffffffffffffffffffff166342842e0e8386866040518463ffffffff1660e01b8152600401808473ffffffffffffffffffffffffffffffffffffffff1673ffffffffffffffffffffffffffffffffffffffff1681526020018373ffffffffffffffffffffffffffffffffffffffff1673ffffffffffffffffffffffffffffffffffffffff1681526020018281526020019350505050600060405180830381600087803b158015610bba57600080fd5b505af1158015610bce573d6000803e3d6000fd5b505050505050505050565b8173ffffffffffffffffffffffffffffffffffffffff16600260008473ffffffffffffffffffffffffffffffffffffffff1673ffffffffffffffffffffffffffffffffffffffff16815260200190815260200160002060000160009054906101000a900473ffffffffffffffffffffffffffffffffffffffff1673ffffffffffffffffffffffffffffffffffffffff1614610c7857610c778261056d565b5b8273ffffffffffffffffffffffffffffffffffffffff16600260008573ffffffffffffffffffffffffffffffffffffffff1673ffffffffffffffffffffffffffffffffffffffff16815260200190815260200160002060000160009054906101000a900473ffffffffffffffffffffffffffffffffffffffff1673ffffffffffffffffffffffffffffffffffffffff1614610d1757610d168361056d565b5b6000600160008381526020019081526020016000209050838160000160006101000a81548173ffffffffffffffffffffffffffffffffffffffff021916908373ffffffffffffffffffffffffffffffffffffffff16021790555081816001018190555060018160020181905550600460008381526020019081526020016000208490806001815401808255809150509060018203906000526020600020016000909192909190916101000a81548173ffffffffffffffffffffffffffffffffffffffff021916908373ffffffffffffffffffffffffffffffffffffffff16021790555050600460008381526020019081526020016000208390806001815401808255809150509060018203906000526020600020016000909192909190916101000a81548173ffffffffffffffffffffffffffffffffffffffff021916908373ffffffffffffffffffffffffffffffffffffffff16021790555050818373ffffffffffffffffffffffffffffffffffffffff168573ffffffffffffffffffffffffffffffffffffffff167f7156d0b8d9ed8d1117b97d76a15a304bad2749fc23251c2c7ed65a069895285060405160405180910390a450505050565b60008060016000848152602001908152602001600020600101549050828114915050919050565b606060046000838152602001908152602001600020805480602002602001604051908101604052809291908181526020018280548015610f8f57602002820191906000526020600020905b8160009054906101000a900473ffffffffffffffffffffffffffffffffffffffff1673ffffffffffffffffffffffffffffffffffffffff1681526020019060010190808311610f45575b5050505050905060008090505b8151811015611032576000828281518110610fb357fe5b60200260200101519050600082905060006001840185510390506000828203905080600360008673ffffffffffffffffffffffffffffffffffffffff1673ffffffffffffffffffffffffffffffffffffffff16815260200190815260200160002060008282540192505081905550505050508080600101915050610f9c565b50505056fe6e6f6e2066756e6769626c65207472616e736665723a206d757374206465706f73697420746f6b656e20746f204d5450206669727374a265627a7a7231582025a2e9c574e513e85011361a1588174b1f98537192b8c79c1da5c39aa1debdbc64736f6c63430005100032",
  "source": "// Pragma statements\r\npragma solidity ^0.5.12;\r\n\r\n// Import statements\r\nimport \"@openzeppelin/contracts/token/ERC721/IERC721.sol\";\r\n\r\n\r\n\r\n// Interfaces\r\n// Libraries\r\n// Contracts\r\n\r\ncontract MTP {\r\n\r\n    //constructor\r\n    constructor() public {\r\n        // ...\r\n    }\r\n\r\n    IERC721 public ERC721Interface;\r\n\r\n// Type declarations\r\n// State variables\r\n    mapping(uint256 => Token) public tokens;//maps token id to token struct\r\n    mapping(address => Staker) public stakers;\r\n    mapping(address => int256) public balances; //bibo balances. can be positive or negative;\r\n    mapping(uint256 => address[]) public stakeChain;  //maps a token id to an array of staker addresses\r\n    mapping(uint256 => address[]) public stakeQueu; //pending transfer callers of token when paused\r\n\r\n\r\n    struct Staker { //change to TokenStaker\r\n        address staker_Address_; //redundant\r\n        int staker_Stake_Balance_; //must support negative integers\r\n    }\r\n\r\n    struct Token {\r\n        address token_Address_; //this is redundant\r\n        uint256 token_id_; //for nft tokens\r\n        uint token_Stake_Balance_;\r\n        bool is_paused_;\r\n    }\r\n\r\n// Events\r\n    //StakerAdded\r\n        event StakerAdded(\r\n            address indexed stakerAddress\r\n        );\r\n    //TokenAdded\r\n        event TokenAdded(\r\n            address indexed tokenContractAddress,\r\n            address indexed tokenOwner,\r\n            uint256 indexed tokenID\r\n        );\r\n    //newMTPTransfer\r\n        event NewMTPTransfer(\r\n            address indexed tokenContractAddress,\r\n            uint256 indexed tokenID,\r\n            address indexed tokenReceiver,\r\n            address tokenSender\r\n        );\r\n    //TokenTranferPaused\r\n        event TokenTransferPaused(\r\n            uint256 indexed tokenId,\r\n            address indexed tokenHolder\r\n        );\r\n    //TokenTransferUnpaused\r\n        event TokenTransferUnpaused(\r\n            uint256 indexed tokenId,\r\n            address indexed tokenHolder\r\n        );\r\n    //TokenWithdrawn\r\n        event TokenWithdrawal(\r\n            address indexed tokenContractAddress,\r\n            address indexed tokenOwner,\r\n            uint256 indexed tokenId\r\n        );\r\n    //StakerRemoved\r\n        event StakerRemoved(\r\n            address indexed StakerAddress,\r\n            uint indexed numberOfStakers\r\n        );\r\n    //tokenPaused\r\n        event TokenPaused(\r\n            address indexed tokenContractAddress,\r\n            address indexed tokenOwner,\r\n            uint256 indexed tokenId\r\n        );\r\n    //newMTPNetworkDeployed\r\n    //newProxyFactoryDeployed\r\n    //ProxyCreated\r\n\r\n\r\n\r\n// Functions\r\n\r\n    // External functions\r\n    // external - Cannot be accessed internally, only externally\r\n\r\n    // External functions that are view\r\n    // ...\r\n\r\n    // External functions that are pure\r\n    // ...\r\n\r\n    // Public functions\r\n    //public - all can accesscontract\r\n        // depositToken\r\n    function depositToken(address contractAddress, address tokenOwner, uint256 tokenId) public {\r\n        if(stakers[tokenOwner].staker_Address_ != tokenOwner) {\r\n            addStaker(tokenOwner);\r\n        }\r\n        if(stakers[contractAddress].staker_Address_ != contractAddress) {\r\n            addStaker(contractAddress);\r\n        }\r\n        Token storage t_ = tokens[tokenId];\r\n        t_.token_Address_ = contractAddress;\r\n        t_.token_id_ = tokenId;\r\n        t_.token_Stake_Balance_ = 1;\r\n        stakeChain[tokenId].push(contractAddress);\r\n        stakeChain[tokenId].push(tokenOwner);\r\n\r\n        emit TokenAdded(contractAddress, tokenOwner, tokenId);\r\n    }\r\n        // withdrawToken\r\n\r\n\r\n    function addStaker(address stakerAddress_) public {\r\n        balances[stakerAddress_] = 0;\r\n        stakers[stakerAddress_] = Staker(\r\n            {\r\n                staker_Address_: stakerAddress_,\r\n                staker_Stake_Balance_: 0\r\n            }\r\n        );\r\n\r\n        emit StakerAdded(stakerAddress_);\r\n    }\r\n        // addStakerToQeue\r\n        // removeStaker\r\n        // getStakeChainLength\r\n    function getStakeChainLength(uint256 tokenId) public returns (uint) {\r\n        return stakeChain[tokenId].length;\r\n    }\r\n        // mtpTransfer\r\n    function mtpTransfer(address tokenContract_, address to_, uint256 tokenId_) public {\r\n        require(_isMTPItem(tokenId_), \"non fungible transfer: must deposit token to MTP first\");\r\n\r\n        address from_ = msg.sender;\r\n\r\n        if(stakers[to_].staker_Address_ != to_) {\r\n            addStaker(to_);\r\n        }\r\n\r\n        Token storage t = tokens[tokenId_];\r\n\r\n        stakeChain[tokenId_].push(to_);\r\n        t.token_Stake_Balance_ += stakeChain[tokenId_].length;\r\n        updateBiboBalances(tokenId_);\r\n\r\n        ERC721Interface = IERC721(tokenContract_);\r\n        ERC721Interface.safeTransferFrom(from_, to_, tokenId_);\r\n    }\r\n\r\n\r\n    function pauseTransfer(address tokenContract_, uint256 tokenId, address tokenHolder)  public {\r\n\r\n        if(balances[tokenHolder] >= 0) {\r\n            Token storage t = tokens[tokenId];\r\n            t.is_paused_ = true;\r\n        }\r\n\r\n        emit TokenPaused(tokenContract_, tokenHolder, tokenId);\r\n    }\r\n\r\n    // Internal functions\r\n    //internal - only this  and contracts deriving from it can access\r\n        // isMTPToken\r\n    function _isMTPItem(uint256 tokenId) internal view returns (bool) {\r\n        uint256 existingId = tokens[tokenId].token_id_;\r\n        return existingId == tokenId;\r\n    }\r\n\r\n    // Private functions\r\n    //private - can be accessed only from this contract\r\n        // updateBiboBalances\r\n\r\n    function updateBiboBalances(uint256 tokenId) private {\r\n        address[] memory tokenStakeChain = stakeChain[tokenId];\r\n\r\n        for(uint i = 0; i < tokenStakeChain.length; i++) {\r\n            address currentStakerAddress = tokenStakeChain[i];\r\n            uint stakersBefore = i;\r\n            uint stakersAfter = tokenStakeChain.length - (i + 1);\r\n            int  stakerNewStakes = int256(stakersAfter) - int256(stakersBefore);\r\n            balances[currentStakerAddress] += stakerNewStakes;\r\n        }\r\n    }\r\n}",
  "sourcePath": "C:/Users/wadet/Documents/dapps/ethDenver/stakeTrial/contracts/MTP.sol",
  "compiler": {
    "name": "solc",
    "version": "0.5.16+commit.9c3226ce.Emscripten.clang"
  },
  "schemaVersion": "3.0.20",
  "updatedAt": "2020-02-16T03:23:52.050Z",
  "devdoc": {
    "methods": {}
  },
  "userdoc": {
    "methods": {}
  }
}