{
  "contractName": "MTP",
  "abi": [
    {
      "inputs": [],
      "payable": false,
      "stateMutability": "nonpayable",
      "type": "constructor"
    },
    {
      "anonymous": false,
      "inputs": [
        {
          "indexed": true,
          "internalType": "address",
          "name": "tokenContractAddress",
          "type": "address"
        },
        {
          "indexed": true,
          "internalType": "uint256",
          "name": "tokenID",
          "type": "uint256"
        },
        {
          "indexed": true,
          "internalType": "address",
          "name": "tokenReceiver",
          "type": "address"
        },
        {
          "indexed": false,
          "internalType": "address",
          "name": "tokenSender",
          "type": "address"
        }
      ],
      "name": "NewMTPTransfer",
      "type": "event"
    },
    {
      "anonymous": false,
      "inputs": [
        {
          "indexed": true,
          "internalType": "address",
          "name": "stakerAddress",
          "type": "address"
        }
      ],
      "name": "StakerAdded",
      "type": "event"
    },
    {
      "anonymous": false,
      "inputs": [
        {
          "indexed": true,
          "internalType": "address",
          "name": "StakerAddress",
          "type": "address"
        },
        {
          "indexed": true,
          "internalType": "uint256",
          "name": "numberOfStakers",
          "type": "uint256"
        }
      ],
      "name": "StakerRemoved",
      "type": "event"
    },
    {
      "anonymous": false,
      "inputs": [
        {
          "indexed": true,
          "internalType": "address",
          "name": "tokenContractAddress",
          "type": "address"
        },
        {
          "indexed": true,
          "internalType": "address",
          "name": "tokenOwner",
          "type": "address"
        },
        {
          "indexed": true,
          "internalType": "uint256",
          "name": "tokenID",
          "type": "uint256"
        }
      ],
      "name": "TokenAdded",
      "type": "event"
    },
    {
      "anonymous": false,
      "inputs": [
        {
          "indexed": true,
          "internalType": "address",
          "name": "tokenContractAddress",
          "type": "address"
        },
        {
          "indexed": true,
          "internalType": "address",
          "name": "tokenOwner",
          "type": "address"
        },
        {
          "indexed": true,
          "internalType": "uint256",
          "name": "tokenId",
          "type": "uint256"
        }
      ],
      "name": "TokenPaused",
      "type": "event"
    },
    {
      "anonymous": false,
      "inputs": [
        {
          "indexed": true,
          "internalType": "uint256",
          "name": "tokenId",
          "type": "uint256"
        },
        {
          "indexed": true,
          "internalType": "address",
          "name": "tokenHolder",
          "type": "address"
        }
      ],
      "name": "TokenTransferPaused",
      "type": "event"
    },
    {
      "anonymous": false,
      "inputs": [
        {
          "indexed": true,
          "internalType": "uint256",
          "name": "tokenId",
          "type": "uint256"
        },
        {
          "indexed": true,
          "internalType": "address",
          "name": "tokenHolder",
          "type": "address"
        }
      ],
      "name": "TokenTransferUnpaused",
      "type": "event"
    },
    {
      "anonymous": false,
      "inputs": [
        {
          "indexed": true,
          "internalType": "address",
          "name": "tokenContractAddress",
          "type": "address"
        },
        {
          "indexed": true,
          "internalType": "address",
          "name": "tokenOwner",
          "type": "address"
        },
        {
          "indexed": true,
          "internalType": "uint256",
          "name": "tokenId",
          "type": "uint256"
        }
      ],
      "name": "TokenWithdrawal",
      "type": "event"
    },
    {
      "constant": true,
      "inputs": [],
      "name": "ERC721Interface",
      "outputs": [
        {
          "internalType": "contract IERC721",
          "name": "",
          "type": "address"
        }
      ],
      "payable": false,
      "stateMutability": "view",
      "type": "function"
    },
    {
      "constant": true,
      "inputs": [
        {
          "internalType": "address",
          "name": "",
          "type": "address"
        }
      ],
      "name": "balances",
      "outputs": [
        {
          "internalType": "int256",
          "name": "",
          "type": "int256"
        }
      ],
      "payable": false,
      "stateMutability": "view",
      "type": "function"
    },
    {
      "constant": true,
      "inputs": [
        {
          "internalType": "uint256",
          "name": "",
          "type": "uint256"
        },
        {
          "internalType": "uint256",
          "name": "",
          "type": "uint256"
        }
      ],
      "name": "stakeChain",
      "outputs": [
        {
          "internalType": "address",
          "name": "",
          "type": "address"
        }
      ],
      "payable": false,
      "stateMutability": "view",
      "type": "function"
    },
    {
      "constant": true,
      "inputs": [
        {
          "internalType": "uint256",
          "name": "",
          "type": "uint256"
        },
        {
          "internalType": "uint256",
          "name": "",
          "type": "uint256"
        }
      ],
      "name": "stakeQueu",
      "outputs": [
        {
          "internalType": "address",
          "name": "",
          "type": "address"
        }
      ],
      "payable": false,
      "stateMutability": "view",
      "type": "function"
    },
    {
      "constant": true,
      "inputs": [
        {
          "internalType": "address",
          "name": "",
          "type": "address"
        }
      ],
      "name": "stakers",
      "outputs": [
        {
          "internalType": "address",
          "name": "staker_Address_",
          "type": "address"
        },
        {
          "internalType": "int256",
          "name": "staker_Stake_Balance_",
          "type": "int256"
        }
      ],
      "payable": false,
      "stateMutability": "view",
      "type": "function"
    },
    {
      "constant": true,
      "inputs": [
        {
          "internalType": "uint256",
          "name": "",
          "type": "uint256"
        }
      ],
      "name": "tokens",
      "outputs": [
        {
          "internalType": "address",
          "name": "token_Address_",
          "type": "address"
        },
        {
          "internalType": "uint256",
          "name": "token_id_",
          "type": "uint256"
        },
        {
          "internalType": "uint256",
          "name": "token_Stake_Balance_",
          "type": "uint256"
        },
        {
          "internalType": "bool",
          "name": "is_paused_",
          "type": "bool"
        }
      ],
      "payable": false,
      "stateMutability": "view",
      "type": "function"
    },
    {
      "constant": false,
      "inputs": [
        {
          "internalType": "address",
          "name": "contractAddress",
          "type": "address"
        },
        {
          "internalType": "address",
          "name": "tokenOwner",
          "type": "address"
        },
        {
          "internalType": "uint256",
          "name": "tokenId",
          "type": "uint256"
        }
      ],
      "name": "depositToken",
      "outputs": [],
      "payable": false,
      "stateMutability": "nonpayable",
      "type": "function"
    },
    {
      "constant": false,
      "inputs": [
        {
          "internalType": "address",
          "name": "stakerAddress_",
          "type": "address"
        }
      ],
      "name": "addStaker",
      "outputs": [],
      "payable": false,
      "stateMutability": "nonpayable",
      "type": "function"
    },
    {
      "constant": false,
      "inputs": [
        {
          "internalType": "uint256",
          "name": "tokenId",
          "type": "uint256"
        }
      ],
      "name": "getStakeChainLength",
      "outputs": [
        {
          "internalType": "uint256",
          "name": "",
          "type": "uint256"
        }
      ],
      "payable": false,
      "stateMutability": "nonpayable",
      "type": "function"
    },
    {
      "constant": false,
      "inputs": [
        {
          "internalType": "address",
          "name": "tokenContract_",
          "type": "address"
        },
        {
          "internalType": "address",
          "name": "to_",
          "type": "address"
        },
        {
          "internalType": "uint256",
          "name": "tokenId_",
          "type": "uint256"
        }
      ],
      "name": "mtpTransfer",
      "outputs": [],
      "payable": false,
      "stateMutability": "nonpayable",
      "type": "function"
    },
    {
      "constant": false,
      "inputs": [
        {
          "internalType": "address",
          "name": "tokenContract_",
          "type": "address"
        },
        {
          "internalType": "uint256",
          "name": "tokenId",
          "type": "uint256"
        },
        {
          "internalType": "address",
          "name": "tokenHolder",
          "type": "address"
        }
      ],
      "name": "pauseTransfer",
      "outputs": [],
      "payable": false,
      "stateMutability": "nonpayable",
      "type": "function"
    }
  ],
  "bytecode": "0x608060405234801561001057600080fd5b506110bf806100206000396000f3fe608060405234801561001057600080fd5b50600436106100a95760003560e01c806351eb53101161007157806351eb5310146102b75780639168ae72146102f9578063999d298314610384578063d2d5a487146103ce578063f0b845df14610446578063fb0f97a8146104b4576100a9565b80630e32b1c1146100ae5780632466696e1461012657806327e235e31461016a578063485b758f146101c25780634f64b2be14610230575b600080fd5b6100e4600480360360408110156100c457600080fd5b810190808035906020019092919080359060200190929190505050610522565b604051808273ffffffffffffffffffffffffffffffffffffffff1673ffffffffffffffffffffffffffffffffffffffff16815260200191505060405180910390f35b6101686004803603602081101561013c57600080fd5b81019080803573ffffffffffffffffffffffffffffffffffffffff16906020019092919050505061056d565b005b6101ac6004803603602081101561018057600080fd5b81019080803573ffffffffffffffffffffffffffffffffffffffff1690602001909291905050506106b7565b6040518082815260200191505060405180910390f35b61022e600480360360608110156101d857600080fd5b81019080803573ffffffffffffffffffffffffffffffffffffffff16906020019092919080359060200190929190803573ffffffffffffffffffffffffffffffffffffffff1690602001909291905050506106cf565b005b61025c6004803603602081101561024657600080fd5b81019080803590602001909291905050506107ac565b604051808573ffffffffffffffffffffffffffffffffffffffff1673ffffffffffffffffffffffffffffffffffffffff1681526020018481526020018381526020018215151515815260200194505050505060405180910390f35b6102e3600480360360208110156102cd57600080fd5b8101908080359060200190929190505050610809565b6040518082815260200191505060405180910390f35b61033b6004803603602081101561030f57600080fd5b81019080803573ffffffffffffffffffffffffffffffffffffffff169060200190929190505050610829565b604051808373ffffffffffffffffffffffffffffffffffffffff1673ffffffffffffffffffffffffffffffffffffffff1681526020018281526020019250505060405180910390f35b61038c61086d565b604051808273ffffffffffffffffffffffffffffffffffffffff1673ffffffffffffffffffffffffffffffffffffffff16815260200191505060405180910390f35b610404600480360360408110156103e457600080fd5b810190808035906020019092919080359060200190929190505050610892565b604051808273ffffffffffffffffffffffffffffffffffffffff1673ffffffffffffffffffffffffffffffffffffffff16815260200191505060405180910390f35b6104b26004803603606081101561045c57600080fd5b81019080803573ffffffffffffffffffffffffffffffffffffffff169060200190929190803573ffffffffffffffffffffffffffffffffffffffff169060200190929190803590602001909291905050506108dd565b005b610520600480360360608110156104ca57600080fd5b81019080803573ffffffffffffffffffffffffffffffffffffffff169060200190929190803573ffffffffffffffffffffffffffffffffffffffff16906020019092919080359060200190929190505050610bd9565b005b6004602052816000526040600020818154811061053b57fe5b906000526020600020016000915091509054906101000a900473ffffffffffffffffffffffffffffffffffffffff1681565b6000600360008373ffffffffffffffffffffffffffffffffffffffff1673ffffffffffffffffffffffffffffffffffffffff1681526020019081526020016000208190555060405180604001604052808273ffffffffffffffffffffffffffffffffffffffff1681526020016000815250600260008373ffffffffffffffffffffffffffffffffffffffff1673ffffffffffffffffffffffffffffffffffffffff16815260200190815260200160002060008201518160000160006101000a81548173ffffffffffffffffffffffffffffffffffffffff021916908373ffffffffffffffffffffffffffffffffffffffff160217905550602082015181600101559050508073ffffffffffffffffffffffffffffffffffffffff167fc0687b34adb081bf19c87a2a0a5bb56c4a9584ee8c67fce683c3fac163c27eb860405160405180910390a250565b60036020528060005260406000206000915090505481565b6000600360008373ffffffffffffffffffffffffffffffffffffffff1673ffffffffffffffffffffffffffffffffffffffff168152602001908152602001600020541261074c57600060016000848152602001908152602001600020905060018160030160006101000a81548160ff021916908315150217905550505b818173ffffffffffffffffffffffffffffffffffffffff168473ffffffffffffffffffffffffffffffffffffffff167ffeda6f0652811a371a5069b6a667af4b98cfd9417740aca1a485134fe1db82b660405160405180910390a4505050565b60016020528060005260406000206000915090508060000160009054906101000a900473ffffffffffffffffffffffffffffffffffffffff16908060010154908060020154908060030160009054906101000a900460ff16905084565b600060046000838152602001908152602001600020805490509050919050565b60026020528060005260406000206000915090508060000160009054906101000a900473ffffffffffffffffffffffffffffffffffffffff16908060010154905082565b6000809054906101000a900473ffffffffffffffffffffffffffffffffffffffff1681565b600560205281600052604060002081815481106108ab57fe5b906000526020600020016000915091509054906101000a900473ffffffffffffffffffffffffffffffffffffffff1681565b6108e681610ef0565b61093b576040517f08c379a00000000000000000000000000000000000000000000000000000000081526004018080602001828103825260368152602001806110556036913960400191505060405180910390fd5b60003390508273ffffffffffffffffffffffffffffffffffffffff16600260008573ffffffffffffffffffffffffffffffffffffffff1673ffffffffffffffffffffffffffffffffffffffff16815260200190815260200160002060000160009054906101000a900473ffffffffffffffffffffffffffffffffffffffff1673ffffffffffffffffffffffffffffffffffffffff16146109df576109de8361056d565b5b6000600160008481526020019081526020016000209050600460008481526020019081526020016000208490806001815401808255809150509060018203906000526020600020016000909192909190916101000a81548173ffffffffffffffffffffffffffffffffffffffff021916908373ffffffffffffffffffffffffffffffffffffffff1602179055505060046000848152602001908152602001600020805490508160020160008282540192505081905550610a9e83610f17565b846000806101000a81548173ffffffffffffffffffffffffffffffffffffffff021916908373ffffffffffffffffffffffffffffffffffffffff1602179055506000809054906101000a900473ffffffffffffffffffffffffffffffffffffffff1673ffffffffffffffffffffffffffffffffffffffff166342842e0e8386866040518463ffffffff1660e01b8152600401808473ffffffffffffffffffffffffffffffffffffffff1673ffffffffffffffffffffffffffffffffffffffff1681526020018373ffffffffffffffffffffffffffffffffffffffff1673ffffffffffffffffffffffffffffffffffffffff1681526020018281526020019350505050600060405180830381600087803b158015610bba57600080fd5b505af1158015610bce573d6000803e3d6000fd5b505050505050505050565b8173ffffffffffffffffffffffffffffffffffffffff16600260008473ffffffffffffffffffffffffffffffffffffffff1673ffffffffffffffffffffffffffffffffffffffff16815260200190815260200160002060000160009054906101000a900473ffffffffffffffffffffffffffffffffffffffff1673ffffffffffffffffffffffffffffffffffffffff1614610c7857610c778261056d565b5b8273ffffffffffffffffffffffffffffffffffffffff16600260008573ffffffffffffffffffffffffffffffffffffffff1673ffffffffffffffffffffffffffffffffffffffff16815260200190815260200160002060000160009054906101000a900473ffffffffffffffffffffffffffffffffffffffff1673ffffffffffffffffffffffffffffffffffffffff1614610d1757610d168361056d565b5b6000600160008381526020019081526020016000209050838160000160006101000a81548173ffffffffffffffffffffffffffffffffffffffff021916908373ffffffffffffffffffffffffffffffffffffffff1602179055508181600101819055506001816002018190555060008160030160006101000a81548160ff021916908315150217905550600460008381526020019081526020016000208490806001815401808255809150509060018203906000526020600020016000909192909190916101000a81548173ffffffffffffffffffffffffffffffffffffffff021916908373ffffffffffffffffffffffffffffffffffffffff16021790555050600460008381526020019081526020016000208390806001815401808255809150509060018203906000526020600020016000909192909190916101000a81548173ffffffffffffffffffffffffffffffffffffffff021916908373ffffffffffffffffffffffffffffffffffffffff16021790555050818373ffffffffffffffffffffffffffffffffffffffff168573ffffffffffffffffffffffffffffffffffffffff167f7156d0b8d9ed8d1117b97d76a15a304bad2749fc23251c2c7ed65a069895285060405160405180910390a450505050565b60008060016000848152602001908152602001600020600101549050828114915050919050565b606060046000838152602001908152602001600020805480602002602001604051908101604052809291908181526020018280548015610fac57602002820191906000526020600020905b8160009054906101000a900473ffffffffffffffffffffffffffffffffffffffff1673ffffffffffffffffffffffffffffffffffffffff1681526020019060010190808311610f62575b5050505050905060008090505b815181101561104f576000828281518110610fd057fe5b60200260200101519050600082905060006001840185510390506000828203905080600360008673ffffffffffffffffffffffffffffffffffffffff1673ffffffffffffffffffffffffffffffffffffffff16815260200190815260200160002060008282540192505081905550505050508080600101915050610fb9565b50505056fe6e6f6e2066756e6769626c65207472616e736665723a206d757374206465706f73697420746f6b656e20746f204d5450206669727374a265627a7a723158203ef96bc4d53a7981bbb96690a3e222465e6f0a39b338cfacf8f1191463d9400964736f6c63430005100032",
  "source": "// Pragma statements\npragma solidity ^0.5.12;\n\n// Import statements\nimport \"@openzeppelin/contracts/token/ERC721/IERC721.sol\";\n\n\n\n// Interfaces\n// Libraries\n// Contracts\n\ncontract MTP {\n\n    //constructor\n    constructor() public {\n        // ...\n    }\n\n    IERC721 public ERC721Interface;\n\n// Type declarations\n// State variables\n    mapping(uint256 => Token) public tokens;//maps token id to token struct\n    mapping(address => Staker) public stakers;\n    mapping(address => int256) public balances; //bibo balances. can be positive or negative;\n    mapping(uint256 => address[]) public stakeChain;  //maps a token id to an array of staker addresses\n    mapping(uint256 => address[]) public stakeQueu; //pending transfer callers of token when paused\n\n\n    struct Staker { //change to TokenStaker\n        address staker_Address_; //redundant\n        int staker_Stake_Balance_; //must support negative integers\n    }\n\n    struct Token {\n        address token_Address_; //this is redundant\n        uint256 token_id_; //for nft tokens\n        uint token_Stake_Balance_;\n        bool is_paused_;\n    }\n\n// Events\n    //StakerAdded\n        event StakerAdded(\n            address indexed stakerAddress\n        );\n    //TokenAdded\n        event TokenAdded(\n            address indexed tokenContractAddress,\n            address indexed tokenOwner,\n            uint256 indexed tokenID\n        );\n    //newMTPTransfer\n        event NewMTPTransfer(\n            address indexed tokenContractAddress,\n            uint256 indexed tokenID,\n            address indexed tokenReceiver,\n            address tokenSender\n        );\n    //TokenTranferPaused\n        event TokenTransferPaused(\n            uint256 indexed tokenId,\n            address indexed tokenHolder\n        );\n    //TokenTransferUnpaused\n        event TokenTransferUnpaused(\n            uint256 indexed tokenId,\n            address indexed tokenHolder\n        );\n    //TokenWithdrawn\n        event TokenWithdrawal(\n            address indexed tokenContractAddress,\n            address indexed tokenOwner,\n            uint256 indexed tokenId\n        );\n    //StakerRemoved\n        event StakerRemoved(\n            address indexed StakerAddress,\n            uint indexed numberOfStakers\n        );\n    //tokenPaused\n        event TokenPaused(\n            address indexed tokenContractAddress,\n            address indexed tokenOwner,\n            uint256 indexed tokenId\n        );\n    //BurnStakes\n    //newMTPNetworkDeployed\n    //newProxyFactoryDeployed\n    //ProxyCreated\n\n\n\n// Functions\n\n    // External functions\n    // external - Cannot be accessed internally, only externally\n\n    // External functions that are view\n    // ...\n\n    // External functions that are pure\n    // ...\n\n    // Public functions\n    //public - all can accesscontract\n        // depositToken\n    function depositToken(address contractAddress, address tokenOwner, uint256 tokenId) public {\n        if(stakers[tokenOwner].staker_Address_ != tokenOwner) {\n            addStaker(tokenOwner);\n        }\n        if(stakers[contractAddress].staker_Address_ != contractAddress) {\n            addStaker(contractAddress);\n        }\n        Token storage t_ = tokens[tokenId];\n        t_.token_Address_ = contractAddress;\n        t_.token_id_ = tokenId;\n        t_.token_Stake_Balance_ = 1;\n        t_.is_paused_ = false;\n        stakeChain[tokenId].push(contractAddress);\n        stakeChain[tokenId].push(tokenOwner);\n\n        emit TokenAdded(contractAddress, tokenOwner, tokenId);\n    }\n\n    // withdrawToken(address contractAddress, address tokenOwner, uint256 tokenId) public {\n        //tokenOwner bibo balance >0 ?\n        //is tokenOwner root owner?\n        //burn token stakes\n        //remove token from mapping\n        //withdraw from proxy account\n    //}\n\n    // burnStakes(uint256 tokenId, ) private {\n        //\n        // address[] memory tokenStakeChain = stakeChain[tokenId];\n\n        // for(uint i = 0; i < tokenStakeChain.length; i++) {\n        //     address currentStakerAddress = tokenStakeChain[i];\n        //     uint stakersBefore = i;\n        //     uint stakersAfter = tokenStakeChain.length - (i + 1);\n        //     int  stakerNewStakes = int256(stakersAfter) - int256(stakersBefore);\n        //     balances[currentStakerAddress] -= stakerNewStakes;\n        // }\n    // }\n\n    function addStaker(address stakerAddress_) public {\n        balances[stakerAddress_] = 0;\n        stakers[stakerAddress_] = Staker(\n            {\n                staker_Address_: stakerAddress_,\n                staker_Stake_Balance_: 0\n            }\n        );\n\n        emit StakerAdded(stakerAddress_);\n    }\n        // addStakerToQeue\n            //\n        // removeStaker\n        // getStakeChainLength\n    function getStakeChainLength(uint256 tokenId) public returns (uint) {\n        return stakeChain[tokenId].length;\n    }\n        // mtpTransfer\n    function mtpTransfer(address tokenContract_, address to_, uint256 tokenId_) public {\n        require(_isMTPItem(tokenId_), \"non fungible transfer: must deposit token to MTP first\");\n\n        address from_ = msg.sender;\n\n        if(stakers[to_].staker_Address_ != to_) {\n            addStaker(to_);\n        }\n\n        Token storage t = tokens[tokenId_];\n\n        stakeChain[tokenId_].push(to_);\n        t.token_Stake_Balance_ += stakeChain[tokenId_].length;\n        updateBiboBalances(tokenId_);\n\n        ERC721Interface = IERC721(tokenContract_);\n        ERC721Interface.safeTransferFrom(from_, to_, tokenId_);\n    }\n\n\n    function pauseTransfer(address tokenContract_, uint256 tokenId, address tokenHolder)  public {\n\n        if(balances[tokenHolder] >= 0) {\n            Token storage t = tokens[tokenId];\n            t.is_paused_ = true;\n        }\n\n        emit TokenPaused(tokenContract_, tokenHolder, tokenId);\n    }\n\n    // Internal functions\n    //internal - only this  and contracts deriving from it can access\n        // isMTPToken\n    function _isMTPItem(uint256 tokenId) internal view returns (bool) {\n        uint256 existingId = tokens[tokenId].token_id_;\n        return existingId == tokenId;\n    }\n\n    // Private functions\n    //private - can be accessed only from this contract\n        // updateBiboBalances\n\n    function updateBiboBalances(uint256 tokenId) private {\n        address[] memory tokenStakeChain = stakeChain[tokenId];\n\n        for(uint i = 0; i < tokenStakeChain.length; i++) {\n            address currentStakerAddress = tokenStakeChain[i];\n            uint stakersBefore = i;\n            uint stakersAfter = tokenStakeChain.length - (i + 1);\n            int  stakerNewStakes = int256(stakersAfter) - int256(stakersBefore);\n            balances[currentStakerAddress] += stakerNewStakes;\n        }\n    }\n}",
  "sourcePath": "/Users/harish/Downloads/stake-trial/contracts/MTP.sol",
  "compiler": {
    "name": "solc",
    "version": "0.5.16+commit.9c3226ce.Emscripten.clang"
  },
  "schemaVersion": "3.0.19",
  "updatedAt": "2020-02-16T09:30:26.674Z",
  "networkType": "ethereum",
  "devdoc": {
    "methods": {}
  },
  "userdoc": {
    "methods": {}
  }
}